{
  "transactions": [
    {
      "hash": "0x9bc329efa6edaefe9ee4cfec7c95140d64a5d9b968967d777548fc5759ac19e4",
      "transactionType": "CREATE",
      "contractName": "GMCChild",
      "contractAddress": "0xa3909FAC5A672dEA39336e470F3294f7ecedE4bA",
      "function": null,
      "arguments": [
        "0x8397259c983751DAf40400790063935a11afa28a",
        "0xfBC148A77961a73b001e0c9441C15c5B5b6725cC"
      ],
      "transaction": {
        "type": "0x02",
        "from": "0x74de159b3a9372b7e85fd00569a0929265b630ef",
        "gas": "0x3a31b2",
        "value": "0x0",
        "data": "0x61010060405230608081905260a0523480156200001b57600080fd5b5060405162003520380380620035208339810160408190526200003e9162000073565b6001600160a01b0391821660c0521660e052620000ab565b80516001600160a01b03811681146200006e57600080fd5b919050565b600080604083850312156200008757600080fd5b620000928362000056565b9150620000a26020840162000056565b90509250929050565b60805160a05160c05160e0516134146200010c6000396000818161066101528181610bc0015281816121620152818161253d015281816125e001526127c301526000818161038a015261106e0152600050506000610a0101526134146000f3fe608060405234801561001057600080fd5b50600436106102465760003560e01c806306fdde031461024b5780630e5185061461029157806311836f32146102b15780631e373635146102d15780632972b0f0146102f45780632f745c591461030757806337cd6ffc146103285780633d9f01fb1461033d5780633dc43b7c1461036857806341d138de1461037d578063450d11f0146103855780634f1ef286146103ac57806352d1902d146103bf578063532c5cca146103c75780635484c766146103da5780635494b7b3146103ed57806355f804b31461040e578063613aac1b146104215780636352211e1461043457806364f69c291461044757806366b1b6531461045a5780636b8ff5741461046d5780636da1b4bc146104805780636f7267b7146104a05780637f1e9cb0146104c957806388837094146104d15780638da5cb5b146104e457806395d89b41146104ec5780639a7c4b711461050e5780639b75265114610521578063ab27bd1714610534578063ab7b0de814610547578063add0370a1461055d578063b055a15814610570578063b3f9ea3414610583578063bb58131f14610596578063bbae384d146105a9578063c815729d146105bc578063c87b56dd146105cf578063d8177369146105e2578063e18d38ce146105f5578063e1c7392a14610608578063e4cb42ad14610610578063ea9fee4814610623578063eec1cbb714610636578063f2fde38b14610649578063fbfa77cf1461065c578063fcce488314610683578063fe2c7fee14610696578063fe55932a146106a9575b600080fd5b61027b6040518060400160405280601181526020017047616e67737461204d696365204369747960781b81525081565b6040516102889190612a85565b60405180910390f35b6102a461029f366004612ab8565b6106bc565b6040516102889190612af8565b6102c46102bf366004612ab8565b61071b565b6040516102889190612b1c565b6102e46102df366004612b59565b6107d7565b6040519015158152602001610288565b6102e4610302366004612b59565b61080b565b61031a610315366004612b59565b610854565b604051908152602001610288565b610330610881565b6040516102889190612b85565b61035061034b366004612ab8565b6108aa565b6040516001600160a01b039091168152602001610288565b61037b610376366004612c14565b6108ce565b005b61031a610983565b6103507f000000000000000000000000000000000000000000000000000000000000000081565b61037b6103ba366004612c96565b6109a6565b61031a6109f4565b61037b6103d5366004612c14565b610a52565b61037b6103e8366004612cea565b610ada565b6104006103fb366004612ab8565b610c5d565b604051610288929190612d0c565b61037b61041c366004612d20565b610cec565b61037b61042f366004612d55565b610d33565b610350610442366004612ab8565b610dad565b61037b610455366004612c14565b610db8565b610330610468366004612d9c565b610e85565b61027b61047b366004612ab8565b610eb3565b61049361048e366004612d9c565b610f5f565b6040516102889190612db9565b6104b36104ae366004612ab8565b610fea565b60405164ffffffffff9091168152602001610288565b61035061100e565b61037b6104df366004612d9c565b611027565b610350611059565b61027b60405180604001604052806003815260200162474d4360e81b81525081565b61037b61051c366004612dea565b611063565b6102e461052f366004612b59565b611100565b61037b610542366004612d9c565b6111de565b6102e4610555366004612ab8565b612710111590565b61037b61056b366004612d55565b6112dc565b61031a61057e366004612d9c565b611318565b61031a610591366004612d9c565b61134c565b61037b6105a4366004612d20565b611376565b61037b6105b7366004612b59565b6113c0565b61037b6105ca366004612ab8565b6113fb565b61027b6105dd366004612ab8565b61154d565b61037b6105f0366004612d20565b6115c1565b61027b610603366004612d9c565b611613565b61037b611644565b61037b61061e366004612c14565b61166d565b61037b610631366004612e45565b61175a565b610330610644366004612d9c565b611986565b61037b610657366004612d9c565b6119b1565b6103507f000000000000000000000000000000000000000000000000000000000000000081565b6102e4610691366004612ab8565b611a42565b61037b6106a4366004612d20565b611a68565b61037b6106b7366004612ede565b611ab2565b6106c4612a23565b6106cc611b34565b60009283526020908152604092839020835160608101855290546001600160a01b038116825260ff600160a01b8204811693830193909352600160a81b90049091161515928101929092525090565b600061072982612710111590565b1561075d57600761073c61271184612f26565b6107469190612f39565b600381111561075757610757612b06565b92915050565b600061079f61076d600185612f26565b610775611b58565b600501906000826020528160071c6000526003602060002054607f841660011b1c16905092915050565b9050806000036107b257600391506107d1565b6107bd600182612f26565b60038111156107ce576107ce612b06565b91505b50919050565b6000610804826107e5611b7c565b6001600160a01b03861660009081526020919091526040902090611ba0565b9392505050565b6000826001600160a01b031661082083610dad565b6001600160a01b031614806108045750826001600160a01b0316610843836108aa565b6001600160a01b0316149392505050565b600061080482610862611b7c565b6001600160a01b03861660009081526020919091526040902090611bb8565b60606108a561088e611b34565b600080805260029190910160205260409020611be2565b905090565b60006108b4611b34565b60009283526020525060409020546001600160a01b031690565b6108d6611c3d565b546001600160a01b031633146108ff57604051632e6c18c960e11b815260040160405180910390fd5b61271060005b8281101561097d5761272561091983612f5b565b925082111561093b576040516305d23b5b60e01b815260040160405180910390fd5b61096b84848381811061095057610950612f74565b90506020020160208101906109659190612d9c565b83611c61565b8061097581612f5b565b915050610905565b50505050565b60006108a5610990611b34565b6000808052600291909101602052604090205490565b6109af83611d68565b6109ef8383838080601f016020809104026020016040519081016040528093929190818152602001838380828437600092019190915250611d9c92505050565b505050565b6000306001600160a01b037f00000000000000000000000000000000000000000000000000000000000000001614610a3f576040516306c4a1c760e11b815260040160405180910390fd5b506000805160206133a883398151915290565b60005b818110156109ef5733610a7f848484818110610a7357610a73612f74565b90506020020135610dad565b6001600160a01b031614610aa65760405163ea8e4eb560e01b815260040160405180910390fd5b610ac833848484818110610abc57610abc612f74565b90506020020135611f27565b80610ad281612f5b565b915050610a55565b610ae2611c3d565b546001600160a01b03163314610b0b57604051632e6c18c960e11b815260040160405180910390fd5b8015610c5957610b3082610b1d611b58565b6005019060209182526000908152205490565b15610b4e57604051635318377960e11b815260040160405180910390fd5b610b6e8282610b5b611b58565b6005016020908152600092835290912055565b6000806000805b6080811015610c545780600787901b016001019350600181901b85901c6003169250610ba084610dad565b91508215801590610bb957506001600160a01b03821615155b15610c4c577f00000000000000000000000000000000000000000000000000000000000000006001600160a01b031663f522c8b48360018603610bfb88610fea565b6040518463ffffffff1660e01b8152600401610c1993929190612f8a565b600060405180830381600087803b158015610c3357600080fd5b505af1158015610c47573d6000803e3d6000fd5b505050505b600101610b75565b505050505b5050565b6000610c67612a23565b6000610c8d84610c75611b34565b60008080526002919091016020526040902090611bb8565b905080610c98611b34565b60009283526020908152604092839020835160608101855290546001600160a01b038116825260ff600160a01b8204811693830193909352600160a81b900490911615159281019290925294909350915050565b610cf4611c3d565b546001600160a01b03163314610d1d57604051632e6c18c960e11b815260040160405180910390fd5b8181610d27611b58565b916109ef919083613042565b60005b8181101561097d5733610d54848484818110610a7357610a73612f74565b6001600160a01b031614610d7b5760405163ea8e4eb560e01b815260040160405180910390fd5b610d9d84848484818110610d9157610d91612f74565b90506020020135611c61565b610da681612f5b565b9050610d36565b600061075782611fed565b610dc0611c3d565b546001600160a01b03163314610de957604051632e6c18c960e11b815260040160405180910390fd5b60005b818110156109ef576000610dfe611b34565b6000858585818110610e1257610e12612f74565b9050602002013581526020019081526020016000209050610e70848484818110610e3e57610e3e612f74565b90506020020135610e4d611b34565b83546001600160a01b031660009081526003919091016020526040902090611ff7565b50508080610e7d90612f5b565b915050610dec565b6060610757610e92611b34565b6001600160a01b038416600090815260039190910160205260409020611be2565b6060610ebd611b58565b6000838152600391909101602052604090208054610eda90612fc8565b80601f0160208091040260200160405190810160405280929190818152602001828054610f0690612fc8565b8015610f535780601f10610f2857610100808354040283529160200191610f53565b820191906000526020600020905b815481529060010190602001808311610f3657829003601f168201915b50505050509050919050565b610f67612a43565b6000610f728361134c565b905060005b81811015610fe3576000610f8b8583610854565b9050600184610f998361071b565b6003811115610faa57610faa612b06565b60ff1660038110610fbd57610fbd612f74565b60200201818151610fce9190613101565b905250610fdc905081612f5b565b9050610f77565b5050919050565b6000610ff882612710111590565b1561100657506103e8919050565b506064919050565b600061101861200e565b546001600160a01b0316919050565b61102f612032565b8061103861200e565b80546001600160a01b0319166001600160a01b039290921691909117905550565b6000611018611c3d565b336001600160a01b037f000000000000000000000000000000000000000000000000000000000000000016146110ac5760405163c730925d60e01b815260040160405180910390fd5b6001600160a01b03831615806110d657506110c561200e565b546001600160a01b03848116911614155b156110f457604051635ce20beb60e01b815260040160405180910390fd5b61097d84848484612063565b600061110e82612710111590565b1561118357600061111e8361071b565b9050611128611b58565b6001600160a01b0385166000908152600691909101602052604081209082600381111561115757611157612b06565b600381111561116857611168612b06565b81526020019081526020016000205460001415915050610757565b600061118e836108aa565b90506001600160a01b0381166111c0576111a783610dad565b6001600160a01b0316846001600160a01b0316146111d6565b806001600160a01b0316846001600160a01b0316145b949350505050565b6111e6611c3d565b546001600160a01b0316331461120f57604051632e6c18c960e11b815260040160405180910390fd5b600061121a82610e85565b805190915060005b8181101561097d576000611234611b34565b600001600085848151811061124b5761124b612f74565b602090810291909101810151825281019190915260400160002080549091506001600160a01b0390811690861681146112c7576112c585848151811061129357611293612f74565b60200260200101516112a3611b34565b6001600160a01b038916600090815260039190910160205260409020906120e2565b505b505080806112d490612f5b565b915050611222565b6112e4611c3d565b546001600160a01b0316331461130d57604051632e6c18c960e11b815260040160405180910390fd5b6109ef8383836120f0565b6000610e10611325611b34565b6001600160a01b038416600090815260019190910160205260409020546107579190613101565b6000610757611359611b7c565b6001600160a01b0384166000908152602091909152604090205490565b61137e611c3d565b546001600160a01b031633146113a757604051632e6c18c960e11b815260040160405180910390fd5b81816113b1611b58565b600101916109ef919083613042565b6113c8611c3d565b546001600160a01b031633146113f157604051632e6c18c960e11b815260040160405180910390fd5b610c598282611c61565b6000611405611b34565b600083815260209190915260409020905061141f82611a42565b61143c57604051631771cc0160e11b815260040160405180910390fd5b8054600160a01b900460ff1660000361146857604051631771cc0160e11b815260040160405180910390fd5b80546001600160a01b031615611491576040516393f1b0b360e01b815260040160405180910390fd5b610e1061149c611b34565b33600090815260019190910160205260409020546114ba9042612f26565b10156114d9576040516305186e4560e01b815260040160405180910390fd5b80546001600160a01b0319163317815561150e826114f5611b34565b3360009081526003919091016020526040902090611ff7565b5042611518611b34565b3360009081526001919091016020526040902055610c5961153883610dad565b825433908590600160a01b900460ff16612121565b6060611557611b58565b805461156290612fc8565b1590506115ab57611571611b58565b61157a8361222b565b611582611b58565b60010160405160200161159793929190613187565b604051602081830303815290604052610757565b6115b3611b58565b6002018054610eda90612fc8565b6115cd8282601461226f565b6115ea5760405163430f13b360e01b815260040160405180910390fd5b81816115f4611b58565b33600090815260049190910160205260409020916109ef919083613042565b606061161d611b58565b6001600160a01b0383166000908152600491909101602052604090208054610eda90612fc8565b303b156116635760405162dc149f60e41b815260040160405180910390fd5b61166b612478565b565b60005b818110156109ef57600083838381811061168c5761168c612f74565b90506020020135905061169f338261080b565b6116bc5760405163ea8e4eb560e01b815260040160405180910390fd5b60006116c6611b34565b600083815260209190915260409020805490915060ff600160a01b8204811691600160a81b8104909116906001600160a01b031661171757604051631771cc0160e11b815260040160405180910390fd5b61172961172385610dad565b85611f27565b8061174557825460ff60a01b1916600160a01b60ff8416021783555b505050508061175390612f5b565b9050611670565b60005b8381101561197f57600085858381811061177957611779612f74565b9050602002013590503684848481811061179557611795612f74565b905060600201905060008160200160208101906117b291906131c9565b60ff16905060006117c284610dad565b90506127108411156117e75760405163ea8e4eb560e01b815260040160405180910390fd5b6001600160a01b03811633146118105760405163ea8e4eb560e01b815260040160405180910390fd5b3361181e6020850185612d9c565b6001600160a01b03160361184557604051631771cc0160e11b815260040160405180910390fd5b601e8210806118545750816064105b156118725760405163117e8efb60e01b815260040160405180910390fd5b600061189885611880611b34565b60008080526002919091016020526040902090611ff7565b9050806118b8576040516328f560bb60e21b815260040160405180910390fd5b60006118c76020860186612d9c565b6001600160a01b03161461192b57611912856118e1611b34565b60030160006118f36020890189612d9c565b6001600160a01b03168152602081019190915260400160002090611ff7565b5061192b826119246020870187612d9c565b8786612121565b87878781811061193d5761193d612f74565b90506060020161194b611b34565b60008781526020919091526040902061196482826131e6565b9050505050505050808061197790612f5b565b91505061175d565b5050505050565b6060610757611993611b7c565b6001600160a01b038416600090815260209190915260409020611be2565b6119b9611c3d565b546001600160a01b031633146119e257604051632e6c18c960e11b815260040160405180910390fd5b806119eb611c3d565b80546001600160a01b0319166001600160a01b039283161790556040805133815291831660208301527fb532073b38c83145e3e5135377a08bf9aab55bc0fd7c1179cd4fb995d2a5159c910160405180910390a150565b600061075782611a50611b34565b60008080526002919091016020526040902090611ba0565b611a70611c3d565b546001600160a01b03163314611a9957604051632e6c18c960e11b815260040160405180910390fd5b8181611aa3611b58565b600201916109ef919083613042565b611abe8282601461226f565b611adb5760405163430f13b360e01b815260040160405180910390fd5b33611ae584610dad565b6001600160a01b031614611b0c5760405163ea8e4eb560e01b815260040160405180910390fd5b8181611b16611b58565b6000868152600391909101602052604090209161097d919083613042565b7fb20c073568d156ad06d57912c620a84698498471601ee93a68bc9a5670ef76e390565b7f9108fb9a972abcdd3f690b9b870316b079061fc15dec0c5c9a395d4fd6faab7090565b7f5706052b78143e7873dfe5a5d60ca75839688997e8d54501654544643f4caa3d90565b60009081526001919091016020526040902054151590565b6000826000018281548110611bcf57611bcf612f74565b9060005260206000200154905092915050565b606081600001805480602002602001604051908101604052809291908181526020018280548015610f5357602002820191906000526020600020905b815481526020019060010190808311611c1e5750505050509050919050565b7f87917b04fc43108fc3d291ac961b425fe1ddcf80087b2cb7e3c48f3e9233ea3390565b6000611c6b6124c0565b600083815260209190915260409020546001600160a01b03908116915083168103611cbe576000805160206133e8833981519152818484604051611cb19392919061327e565b60405180910390a1505050565b6001600160a01b03811615801590611cde57506001600160a01b03831615155b15611d0d576000805160206133e8833981519152818484604051611d049392919061327e565b60405180910390a15b82611d166124c0565b6000848152602091909152604080822080546001600160a01b0319166001600160a01b0394851617905551849286811692908516916000805160206133c88339815191529190a46109ef8184846124e4565b611d70611c3d565b546001600160a01b03163314611d9957604051632e6c18c960e11b815260040160405180910390fd5b50565b816001600160a01b03163b600003611dc7576040516309ee12d560e01b815260040160405180910390fd5b6000805160206133a883398151915260001b826001600160a01b03166352d1902d6040518163ffffffff1660e01b8152600401602060405180830381865afa158015611e17573d6000803e3d6000fd5b505050506040513d601f19601f82011682018060405250810190611e3b91906132a2565b14611e59576040516303ed501d60e01b815260040160405180910390fd5b805115611ecf576000826001600160a01b031682604051611e7a91906132bb565b600060405180830381855af49150503d8060008114611eb5576040519150601f19603f3d011682016040523d82523d6000602084013e611eba565b606091505b5050905080611ecd573d6000803e3d6000fd5b505b6000805160206133a883398151915280546001600160a01b0319166001600160a01b0384169081179091556040517fbc7cd75a20ee27fd9adebab32041f755214dbc6bffa90cc0225b39da2e5c2d3b90600090a25050565b611f4b81611f33611b34565b600080805260029190910160205260409020906120e2565b15611fc8576000611f5a611b34565b60008381526020919091526040902080549091506001600160a01b03811690600160a01b900460ff168115611fc457611fb784611f95611b34565b6001600160a01b038516600090815260039190910160205260409020906120e2565b50611fc485838684612782565b5050505b611fd0611b34565b60009182526020526040902080546001600160b01b031916905550565b60006108b46124c0565b60008282612005828261288c565b95945050505050565b7f78fb77475679055b561a920ad9c59687e010e1c25efff4790e95ce6af61a09c990565b61203a611c3d565b546001600160a01b0316331461166b57604051632e6c18c960e11b815260040160405180910390fd5b600061206f82846132d7565b90506001600160e01b031981166309a4da8160e31b146120a257604051631cd4b64760e21b815260040160405180910390fd5b60006120b2602460048587613307565b6120bb91613331565b9050602484810135850190810190600401356120d88383836120f0565b5050505050505050565b6000828261200582826128dc565b60005b8181101561097d5761211184848484818110610d9157610d91612f74565b61211a81612f5b565b90506120f3565b600061212c8361071b565b9050600381600381111561214257612142612b06565b03612160576040516314df7fed60e31b815260040160405180910390fd5b7f00000000000000000000000000000000000000000000000000000000000000006001600160a01b03166328b86cfe86868460038111156121a3576121a3612b06565b866040518563ffffffff1660e01b81526004016121c3949392919061334f565b600060405180830381600087803b1580156121dd57600080fd5b505af11580156121f1573d6000803e3d6000fd5b5050505082846001600160a01b0316866001600160a01b03166000805160206133c883398151915260405160405180910390a45050505050565b606060a06040510180604052602081039150506000815280825b600183039250600a81066030018353600a9004806122455750819003601f19909101908152919050565b60008084848080601f0160208091040260200160405190810160405280939291908181526020018383808284376000920191909152505082519293505060019091109050806122be5750828151115b806122ee5750806000815181106122d7576122d7612f74565b6020910101516001600160f81b031916600160fd1b145b8061232a575080600182516123039190612f26565b8151811061231357612313612f74565b6020910101516001600160f81b031916600160fd1b145b15612339576000915050610804565b60008160008151811061234e5761234e612f74565b01602001516001600160f81b03191690506000805b835181101561246a5783818151811061237e5761237e612f74565b01602001516001600160f81b0319169150600360fd1b821180156123af5750607b60f81b6001600160f81b03198316105b806123df5750600160fe1b6001600160f81b031983161180156123df5750605b60f81b6001600160f81b03198316105b806124105750600160fd1b6001600160f81b031983161480156124105750600160fd1b6001600160f81b0319841614155b806124405750602f60f81b6001600160f81b031983161180156124405750601d60f91b6001600160f81b03198316105b1561244d5781925061245a565b6000945050505050610804565b61246381612f5b565b9050612363565b506001979650505050505050565b303b156124975760405162dc149f60e41b815260040160405180910390fd5b336124a0611c3d565b80546001600160a01b0319166001600160a01b0392909216919091179055565b7fc001d528a1e2e8cbfb6d8c35f8c02fbd581080e05dcb09a52f3ab426a5ebd35690565b6124ef8383836129ad565b60006124fa8261071b565b9050600381600381111561251057612510612b06565b1461267457600061252083610fea565b90506001600160a01b038516156125cf5761253b8584611f27565b7f00000000000000000000000000000000000000000000000000000000000000006001600160a01b031663f36cb4508684600381111561257d5761257d612b06565b846040518463ffffffff1660e01b815260040161259c93929190612f8a565b600060405180830381600087803b1580156125b657600080fd5b505af11580156125ca573d6000803e3d6000fd5b505050505b6001600160a01b03841615612672577f00000000000000000000000000000000000000000000000000000000000000006001600160a01b031663f522c8b48584600381111561262057612620612b06565b846040518463ffffffff1660e01b815260040161263f93929190612f8a565b600060405180830381600087803b15801561265957600080fd5b505af115801561266d573d6000803e3d6000fd5b505050505b505b61268082612710111590565b1561097d576001600160a01b038416156127015761269c611b58565b6001600160a01b038516600090815260069190910160205260408120908260038111156126cb576126cb612b06565b60038111156126dc576126dc612b06565b815260200190815260200160002060008154809291906126fb9061337a565b91905055505b6001600160a01b0383161561097d57612718611b58565b6001600160a01b0384166000908152600691909101602052604081209082600381111561274757612747612b06565b600381111561275857612758612b06565b8152602001908152602001600020600081548092919061277790612f5b565b919050555050505050565b600061278d8361071b565b905060038160038111156127a3576127a3612b06565b036127c1576040516314df7fed60e31b815260040160405180910390fd5b7f00000000000000000000000000000000000000000000000000000000000000006001600160a01b03166328b86cfe858784600381111561280457612804612b06565b866040518563ffffffff1660e01b8152600401612824949392919061334f565b600060405180830381600087803b15801561283e57600080fd5b505af1158015612852573d6000803e3d6000fd5b5050505082856001600160a01b0316856001600160a01b03166000805160206133c883398151915260405160405180910390a45050505050565b600081815260018301602052604081205480156128ad576000915050610757565b505081546001808201845560008481526020808220909301849055845493815293810190915260409092205590565b60008181526001830160205260408120548082036128fe576000915050610757565b835481811461296957600085600001600183038154811061292157612921612f74565b906000526020600020015490508086600001600185038154811061294757612947612f74565b6000918252602080832090910192909255918252600187019052604090208290555b6000848152600186016020526040812055845485908061298b5761298b613391565b6001900381819060005260206000200160009055905560019250505092915050565b6001600160a01b038316156129e9576129e7816129c8611b7c565b6001600160a01b038616600090815260209190915260409020906120e2565b505b6001600160a01b038216156109ef5761097d81612a04611b7c565b6001600160a01b03851660009081526020919091526040902090611ff7565b604080516060810182526000808252602082018190529181019190915290565b60405180606001604052806003906020820280368337509192915050565b60005b83811015612a7c578181015183820152602001612a64565b50506000910152565b6020815260008251806020840152612aa4816040850160208701612a61565b601f01601f19169190910160400192915050565b600060208284031215612aca57600080fd5b5035919050565b80516001600160a01b0316825260208082015160ff16908301526040908101511515910152565b606081016107578284612ad1565b634e487b7160e01b600052602160045260246000fd5b6020810160048310612b3e57634e487b7160e01b600052602160045260246000fd5b91905290565b6001600160a01b0381168114611d9957600080fd5b60008060408385031215612b6c57600080fd5b8235612b7781612b44565b946020939093013593505050565b6020808252825182820181905260009190848201906040850190845b81811015612bbd57835183529284019291840191600101612ba1565b50909695505050505050565b60008083601f840112612bdb57600080fd5b5081356001600160401b03811115612bf257600080fd5b6020830191508360208260051b8501011115612c0d57600080fd5b9250929050565b60008060208385031215612c2757600080fd5b82356001600160401b03811115612c3d57600080fd5b612c4985828601612bc9565b90969095509350505050565b60008083601f840112612c6757600080fd5b5081356001600160401b03811115612c7e57600080fd5b602083019150836020828501011115612c0d57600080fd5b600080600060408486031215612cab57600080fd5b8335612cb681612b44565b925060208401356001600160401b03811115612cd157600080fd5b612cdd86828701612c55565b9497909650939450505050565b60008060408385031215612cfd57600080fd5b50508035926020909101359150565b828152608081016108046020830184612ad1565b60008060208385031215612d3357600080fd5b82356001600160401b03811115612d4957600080fd5b612c4985828601612c55565b600080600060408486031215612d6a57600080fd5b8335612d7581612b44565b925060208401356001600160401b03811115612d9057600080fd5b612cdd86828701612bc9565b600060208284031215612dae57600080fd5b813561080481612b44565b60608101818360005b6003811015612de1578151835260209283019290910190600101612dc2565b50505092915050565b60008060008060608587031215612e0057600080fd5b843593506020850135612e1281612b44565b925060408501356001600160401b03811115612e2d57600080fd5b612e3987828801612c55565b95989497509550505050565b60008060008060408587031215612e5b57600080fd5b84356001600160401b0380821115612e7257600080fd5b612e7e88838901612bc9565b90965094506020870135915080821115612e9757600080fd5b818701915087601f830112612eab57600080fd5b813581811115612eba57600080fd5b886020606083028501011115612ecf57600080fd5b95989497505060200194505050565b600080600060408486031215612ef357600080fd5b8335925060208401356001600160401b03811115612cd157600080fd5b634e487b7160e01b600052601160045260246000fd5b8181038181111561075757610757612f10565b600082612f5657634e487b7160e01b600052601260045260246000fd5b500490565b600060018201612f6d57612f6d612f10565b5060010190565b634e487b7160e01b600052603260045260246000fd5b6001600160a01b03939093168352602083019190915264ffffffffff16604082015260600190565b634e487b7160e01b600052604160045260246000fd5b600181811c90821680612fdc57607f821691505b6020821081036107d157634e487b7160e01b600052602260045260246000fd5b601f8211156109ef57600081815260208120601f850160051c810160208610156130235750805b601f850160051c820191505b81811015610c545782815560010161302f565b6001600160401b0383111561305957613059612fb2565b61306d836130678354612fc8565b83612ffc565b6000601f8411600181146130a157600085156130895750838201355b600019600387901b1c1916600186901b17835561197f565b600083815260209020601f19861690835b828110156130d257868501358255602094850194600190920191016130b2565b50868210156130ef5760001960f88860031b161c19848701351681555b505060018560011b0183555050505050565b8082018082111561075757610757612f10565b6000815461312181612fc8565b60018281168015613139576001811461314e5761317d565b60ff198416875282151583028701945061317d565b8560005260208060002060005b858110156131745781548a82015290840190820161315b565b50505082870194505b5050505092915050565b60006131938286613114565b84516131a3818360208901612a61565b6131af81830186613114565b979650505050505050565b60ff81168114611d9957600080fd5b6000602082840312156131db57600080fd5b8135610804816131ba565b81356131f181612b44565b81546001600160a01b031981166001600160a01b03929092169182178355602084013561321d816131ba565b60ff60a01b60a09190911b166001600160a81b03198216831781178455604085013580151580821461324e57600080fd5b6001600160b01b03199390931660ff60a81b1994909416939093171760a89190911b60ff60a81b16179091555050565b6001600160a01b039384168152919092166020820152604081019190915260600190565b6000602082840312156132b457600080fd5b5051919050565b600082516132cd818460208701612a61565b9190910192915050565b6001600160e01b031981358181169160048510156132ff5780818660040360031b1b83161692505b505092915050565b6000808585111561331757600080fd5b8386111561332457600080fd5b5050820193919092039150565b8035602083101561075757600019602084900360031b1b1692915050565b6001600160a01b039485168152929093166020830152604082015260ff909116606082015260800190565b60008161338957613389612f10565b506000190190565b634e487b7160e01b600052603160045260246000fdfe360894a13ba1a3210667c828492db98dca3e2076cc3735a920a3ca505d382bbcddf252ad1be2c89b69c2b068fc378daa952ba7f163c4a11628f55a4df523b3ef1efb8458f6ad6ba3344f732b67ca617fcaa1df9155b01c7007a933707de4c346a164736f6c6343000811000a0000000000000000000000008397259c983751daf40400790063935a11afa28a000000000000000000000000fbc148a77961a73b001e0c9441c15c5b5b6725cc",
        "nonce": "0x1d6",
        "accessList": []
      },
      "additionalContracts": []
    },
    {
      "hash": "0x08efbc11180a9adfc3c0dd53621750eb971aa50154af33d5341570f5d6459ea2",
      "transactionType": "CALL",
      "contractName": null,
      "contractAddress": "0x6b363d51016e65fEeB18b66D05f82e5d9715B0e8",
      "function": "upgradeToAndCall(address,bytes)",
      "arguments": [
        "0xa3909FAC5A672dEA39336e470F3294f7ecedE4bA",
        "0x"
      ],
      "transaction": {
        "type": "0x02",
        "from": "0x74de159b3a9372b7e85fd00569a0929265b630ef",
        "to": "0x6b363d51016e65feeb18b66d05f82e5d9715b0e8",
        "gas": "0xd62b",
        "value": "0x0",
        "data": "0x4f1ef286000000000000000000000000a3909fac5a672dea39336e470f3294f7ecede4ba00000000000000000000000000000000000000000000000000000000000000400000000000000000000000000000000000000000000000000000000000000000",
        "nonce": "0x1d7",
        "accessList": []
      },
      "additionalContracts": []
    },
    {
      "hash": "0xdb5a3ed9f046bc7bae78bca21849b71f87e652a8afaa8cc5658cde6ba44ce420",
      "transactionType": "CALL",
      "contractName": null,
      "contractAddress": "0x6b363d51016e65fEeB18b66D05f82e5d9715B0e8",
      "function": "resyncBarons(address[])",
      "arguments": [
        "[0x93085Af7a963E43C6b56C6ac2dc71cfe1Bd1923d, 0x805a3B79917055A18aBc171E14e4c7e36119D9B6, 0x4b8ee1eEf0bD930c2277a60c839834B142B373d2, 0xcea2c2b93CB242f64C8C3CF36e659cb0EC7d937e, 0x409e5f34Ae011e9Df40E360eE37387fA8b0980CB, 0x7Ce5039A2383ba2CDf57DF1a8Bd353E021c37492, 0x49f2b78458B553229c51a389C811C4A73ae84C73, 0xe2c32116AB0D54C80092D5150c97555AD37E0d63, 0x983c09D36d78A8FB433a88499A95c73524954Af6, 0x158e61A181959844D6Ac426a2A50eec065B3a943, 0xd2bEC77b8BEcdDA350DDaA4Be3b0D91C119b6851, 0x2d254aB8625f9738200E3D1e359e6b1Bf6e0E912, 0x6C7AC914D586F7089e5a68375E0df549317c3eE8, 0xB7fc617Da6546febfC31dfc8283B8588E192B3ec, 0x6d711bE0693B5ff41678bA3f4507c0BF1Ae1ff17, 0xD29588f9867CB0bD9D61A2c099A79B4926940351, 0x5143B2F5e573Be79aA5D96Ae1367bFC6F095C4d9, 0xDe23301fEd4034651bCF6612A5f89D9ADC5b8a2b, 0x205C4d9d198a2e9D74eee70151d1Ba02f3C70Daa, 0x02C1422931439B3e945e2F2F721c80F6c0feaF56, 0x205FfDa46164C3e6ae60AF559c82F26f9470072E]"
      ],
      "transaction": {
        "type": "0x02",
        "from": "0x74de159b3a9372b7e85fd00569a0929265b630ef",
        "to": "0x6b363d51016e65feeb18b66d05f82e5d9715b0e8",
        "gas": "0x4285f4",
        "value": "0x0",
        "data": "0x3dc43b7c0000000000000000000000000000000000000000000000000000000000000020000000000000000000000000000000000000000000000000000000000000001500000000000000000000000093085af7a963e43c6b56c6ac2dc71cfe1bd1923d000000000000000000000000805a3b79917055a18abc171e14e4c7e36119d9b60000000000000000000000004b8ee1eef0bd930c2277a60c839834b142b373d2000000000000000000000000cea2c2b93cb242f64c8c3cf36e659cb0ec7d937e000000000000000000000000409e5f34ae011e9df40e360ee37387fa8b0980cb0000000000000000000000007ce5039a2383ba2cdf57df1a8bd353e021c3749200000000000000000000000049f2b78458b553229c51a389c811c4a73ae84c73000000000000000000000000e2c32116ab0d54c80092d5150c97555ad37e0d63000000000000000000000000983c09d36d78a8fb433a88499a95c73524954af6000000000000000000000000158e61a181959844d6ac426a2a50eec065b3a943000000000000000000000000d2bec77b8becdda350ddaa4be3b0d91c119b68510000000000000000000000002d254ab8625f9738200e3d1e359e6b1bf6e0e9120000000000000000000000006c7ac914d586f7089e5a68375e0df549317c3ee8000000000000000000000000b7fc617da6546febfc31dfc8283b8588e192b3ec0000000000000000000000006d711be0693b5ff41678ba3f4507c0bf1ae1ff17000000000000000000000000d29588f9867cb0bd9d61a2c099a79b49269403510000000000000000000000005143b2f5e573be79aa5d96ae1367bfc6f095c4d9000000000000000000000000de23301fed4034651bcf6612a5f89d9adc5b8a2b000000000000000000000000205c4d9d198a2e9d74eee70151d1ba02f3c70daa00000000000000000000000002c1422931439b3e945e2f2f721c80f6c0feaf56000000000000000000000000205ffda46164c3e6ae60af559c82f26f9470072e",
        "nonce": "0x1d8",
        "accessList": []
      },
      "additionalContracts": []
    }
  ],
  "receipts": [
    {
      "transactionHash": "0x9bc329efa6edaefe9ee4cfec7c95140d64a5d9b968967d777548fc5759ac19e4",
      "transactionIndex": "0x24",
      "blockHash": "0xee496ffc1f8e8cef3634440381848266ac4ee6dc34bd19b0568ecbd1ff941dfe",
      "blockNumber": "0x21f2ae1",
      "from": "0x74De159B3a9372b7e85Fd00569a0929265b630eF",
      "to": null,
      "cumulativeGasUsed": "0x7dbcb5",
      "gasUsed": "0x2cc3c4",
      "contractAddress": "0xa3909FAC5A672dEA39336e470F3294f7ecedE4bA",
      "logs": [
        {
          "address": "0x0000000000000000000000000000000000001010",
          "topics": [
            "0x4dfe1bbbcf077ddc3e01291eea2d5c70c2b422b415d95645b9adcfd678cb1d63",
            "0x0000000000000000000000000000000000000000000000000000000000001010",
            "0x00000000000000000000000074de159b3a9372b7e85fd00569a0929265b630ef",
            "0x0000000000000000000000009ead03f7136fc6b4bdb0780b00a1c14ae5a8b6d0"
          ],
          "data": "0x00000000000000000000000000000000000000000000000001822d0b0d566fbc00000000000000000000000000000000000000000000000051d8d4e57751cf3200000000000000000000000000000000000000000000685c0eaad27c91f72a800000000000000000000000000000000000000000000000005056a7da69fb5f7600000000000000000000000000000000000000000000685c102cff879f4d9a3c",
          "blockHash": "0xee496ffc1f8e8cef3634440381848266ac4ee6dc34bd19b0568ecbd1ff941dfe",
          "blockNumber": "0x21f2ae1",
          "transactionHash": "0x9bc329efa6edaefe9ee4cfec7c95140d64a5d9b968967d777548fc5759ac19e4",
          "transactionIndex": "0x24",
          "logIndex": "0x78",
          "removed": false
        }
      ],
      "status": "0x1",
      "logsBloom": "0x00000000000000000000000000000000000000000000000000000000000000000000000000000000000000000000000000008000000000000000000000000000000000000000000000000000000000800000000080000000000100000000000000000040000000000000000000000000000000000000000080000000000000000040000000040000000000000000000040000000000000000000000000000000200000000000000000000000000000000000000000000000000000000000004000000000000000000001000000000000000000000000000000120000000000000000000000000000000000000000000000000000000000000000000000100000",
      "type": "0x2",
      "effectiveGasPrice": "0x97bb0cf39"
    },
    {
      "transactionHash": "0x08efbc11180a9adfc3c0dd53621750eb971aa50154af33d5341570f5d6459ea2",
      "transactionIndex": "0x32",
      "blockHash": "0xeb8cd4a8f54545d8c3626254a555fc58a9ab6a917b16ddef6c591d459effa503",
      "blockNumber": "0x21f2ae5",
      "from": "0x74De159B3a9372b7e85Fd00569a0929265b630eF",
      "to": "0x6b363d51016e65fEeB18b66D05f82e5d9715B0e8",
      "cumulativeGasUsed": "0x71a51f",
      "gasUsed": "0x9271",
      "contractAddress": null,
      "logs": [
        {
          "address": "0x6b363d51016e65fEeB18b66D05f82e5d9715B0e8",
          "topics": [
            "0xbc7cd75a20ee27fd9adebab32041f755214dbc6bffa90cc0225b39da2e5c2d3b",
            "0x000000000000000000000000a3909fac5a672dea39336e470f3294f7ecede4ba"
          ],
          "data": "0x",
          "blockHash": "0xeb8cd4a8f54545d8c3626254a555fc58a9ab6a917b16ddef6c591d459effa503",
          "blockNumber": "0x21f2ae5",
          "transactionHash": "0x08efbc11180a9adfc3c0dd53621750eb971aa50154af33d5341570f5d6459ea2",
          "transactionIndex": "0x32",
          "logIndex": "0xc5",
          "removed": false
        },
        {
          "address": "0x0000000000000000000000000000000000001010",
          "topics": [
            "0x4dfe1bbbcf077ddc3e01291eea2d5c70c2b422b415d95645b9adcfd678cb1d63",
            "0x0000000000000000000000000000000000000000000000000000000000001010",
            "0x00000000000000000000000074de159b3a9372b7e85fd00569a0929265b630ef",
            "0x0000000000000000000000009ead03f7136fc6b4bdb0780b00a1c14ae5a8b6d0"
          ],
          "data": "0x0000000000000000000000000000000000000000000000000004ef51e63c8a6f00000000000000000000000000000000000000000000000050305207784ebc8e00000000000000000000000000000000000000000000685c341e3ec3e87bce26000000000000000000000000000000000000000000000000502b62b59212321f00000000000000000000000000000000000000000000685c34232e15ceb85895",
          "blockHash": "0xeb8cd4a8f54545d8c3626254a555fc58a9ab6a917b16ddef6c591d459effa503",
          "blockNumber": "0x21f2ae5",
          "transactionHash": "0x08efbc11180a9adfc3c0dd53621750eb971aa50154af33d5341570f5d6459ea2",
          "transactionIndex": "0x32",
          "logIndex": "0xc6",
          "removed": false
        }
      ],
      "status": "0x1",
      "logsBloom": "0x00000000000000000000000000000000400000000000000000000000000000000000000000000000000000000080000000008000000000000000000000000000000000000000000000000000000002800000200080000000000100000000000000000040000000000000000000000000000000000000000080000000000000000040000000040000000000000000000040000000000000000000000000000000600000000000000000000000000000000000000000000000000000000000404000000020000000000001000000000000000000000000000000120000000000000000000000000000000000000000400002000000000000000000000000100000",
      "type": "0x2",
      "effectiveGasPrice": "0x9801adff2"
    },
    {
      "transactionHash": "0xdb5a3ed9f046bc7bae78bca21849b71f87e652a8afaa8cc5658cde6ba44ce420",
      "transactionIndex": "0x44",
      "blockHash": "0x6d738375fed4bed1439637bf7f7a8d565f66e190862a716a9efd1e24622fcc94",
      "blockNumber": "0x21f2ae8",
      "from": "0x74De159B3a9372b7e85Fd00569a0929265b630eF",
      "to": "0x6b363d51016e65fEeB18b66D05f82e5d9715B0e8",
      "cumulativeGasUsed": "0xbe2e6c",
      "gasUsed": "0x2d7c6a",
      "contractAddress": null,
      "logs": [
        {
          "address": "0x6b363d51016e65fEeB18b66D05f82e5d9715B0e8",
          "topics": [
            "0xddf252ad1be2c89b69c2b068fc378daa952ba7f163c4a11628f55a4df523b3ef",
            "0x0000000000000000000000000000000000000000000000000000000000000000",
            "0x00000000000000000000000093085af7a963e43c6b56c6ac2dc71cfe1bd1923d",
            "0x0000000000000000000000000000000000000000000000000000000000002711"
          ],
          "data": "0x",
          "blockHash": "0x6d738375fed4bed1439637bf7f7a8d565f66e190862a716a9efd1e24622fcc94",
          "blockNumber": "0x21f2ae8",
          "transactionHash": "0xdb5a3ed9f046bc7bae78bca21849b71f87e652a8afaa8cc5658cde6ba44ce420",
          "transactionIndex": "0x44",
          "logIndex": "0xfc",
          "removed": false
        },
        {
          "address": "0xfBC148A77961a73b001e0c9441C15c5B5b6725cC",
          "topics": [
            "0x7e667ff21894a91e58a440221e7774b47897c022ab79395c4baa1a8839a11d68",
            "0x00000000000000000000000093085af7a963e43c6b56c6ac2dc71cfe1bd1923d",
            "0x0000000000000000000000000000000000000000000000000000000000000000"
          ],
          "data": "0x00000000000000000000000000000000000000000000000000000000000003e8",
          "blockHash": "0x6d738375fed4bed1439637bf7f7a8d565f66e190862a716a9efd1e24622fcc94",
          "blockNumber": "0x21f2ae8",
          "transactionHash": "0xdb5a3ed9f046bc7bae78bca21849b71f87e652a8afaa8cc5658cde6ba44ce420",
          "transactionIndex": "0x44",
          "logIndex": "0xfd",
          "removed": false
        },
        {
          "address": "0x6b363d51016e65fEeB18b66D05f82e5d9715B0e8",
          "topics": [
            "0xddf252ad1be2c89b69c2b068fc378daa952ba7f163c4a11628f55a4df523b3ef",
            "0x0000000000000000000000000000000000000000000000000000000000000000",
            "0x000000000000000000000000805a3b79917055a18abc171e14e4c7e36119d9b6",
            "0x0000000000000000000000000000000000000000000000000000000000002712"
          ],
          "data": "0x",
          "blockHash": "0x6d738375fed4bed1439637bf7f7a8d565f66e190862a716a9efd1e24622fcc94",
          "blockNumber": "0x21f2ae8",
          "transactionHash": "0xdb5a3ed9f046bc7bae78bca21849b71f87e652a8afaa8cc5658cde6ba44ce420",
          "transactionIndex": "0x44",
          "logIndex": "0xfe",
          "removed": false
        },
        {
          "address": "0xfBC148A77961a73b001e0c9441C15c5B5b6725cC",
          "topics": [
            "0x7e667ff21894a91e58a440221e7774b47897c022ab79395c4baa1a8839a11d68",
            "0x000000000000000000000000805a3b79917055a18abc171e14e4c7e36119d9b6",
            "0x0000000000000000000000000000000000000000000000000000000000000000"
          ],
          "data": "0x00000000000000000000000000000000000000000000000000000000000003e8",
          "blockHash": "0x6d738375fed4bed1439637bf7f7a8d565f66e190862a716a9efd1e24622fcc94",
          "blockNumber": "0x21f2ae8",
          "transactionHash": "0xdb5a3ed9f046bc7bae78bca21849b71f87e652a8afaa8cc5658cde6ba44ce420",
          "transactionIndex": "0x44",
          "logIndex": "0xff",
          "removed": false
        },
        {
          "address": "0x6b363d51016e65fEeB18b66D05f82e5d9715B0e8",
          "topics": [
            "0xddf252ad1be2c89b69c2b068fc378daa952ba7f163c4a11628f55a4df523b3ef",
            "0x0000000000000000000000000000000000000000000000000000000000000000",
            "0x0000000000000000000000004b8ee1eef0bd930c2277a60c839834b142b373d2",
            "0x0000000000000000000000000000000000000000000000000000000000002713"
          ],
          "data": "0x",
          "blockHash": "0x6d738375fed4bed1439637bf7f7a8d565f66e190862a716a9efd1e24622fcc94",
          "blockNumber": "0x21f2ae8",
          "transactionHash": "0xdb5a3ed9f046bc7bae78bca21849b71f87e652a8afaa8cc5658cde6ba44ce420",
          "transactionIndex": "0x44",
          "logIndex": "0x100",
          "removed": false
        },
        {
          "address": "0xfBC148A77961a73b001e0c9441C15c5B5b6725cC",
          "topics": [
            "0x7e667ff21894a91e58a440221e7774b47897c022ab79395c4baa1a8839a11d68",
            "0x0000000000000000000000004b8ee1eef0bd930c2277a60c839834b142b373d2",
            "0x0000000000000000000000000000000000000000000000000000000000000000"
          ],
          "data": "0x00000000000000000000000000000000000000000000000000000000000003e8",
          "blockHash": "0x6d738375fed4bed1439637bf7f7a8d565f66e190862a716a9efd1e24622fcc94",
          "blockNumber": "0x21f2ae8",
          "transactionHash": "0xdb5a3ed9f046bc7bae78bca21849b71f87e652a8afaa8cc5658cde6ba44ce420",
          "transactionIndex": "0x44",
          "logIndex": "0x101",
          "removed": false
        },
        {
          "address": "0x6b363d51016e65fEeB18b66D05f82e5d9715B0e8",
          "topics": [
            "0xddf252ad1be2c89b69c2b068fc378daa952ba7f163c4a11628f55a4df523b3ef",
            "0x0000000000000000000000000000000000000000000000000000000000000000",
            "0x000000000000000000000000cea2c2b93cb242f64c8c3cf36e659cb0ec7d937e",
            "0x0000000000000000000000000000000000000000000000000000000000002714"
          ],
          "data": "0x",
          "blockHash": "0x6d738375fed4bed1439637bf7f7a8d565f66e190862a716a9efd1e24622fcc94",
          "blockNumber": "0x21f2ae8",
          "transactionHash": "0xdb5a3ed9f046bc7bae78bca21849b71f87e652a8afaa8cc5658cde6ba44ce420",
          "transactionIndex": "0x44",
          "logIndex": "0x102",
          "removed": false
        },
        {
          "address": "0xfBC148A77961a73b001e0c9441C15c5B5b6725cC",
          "topics": [
            "0x7e667ff21894a91e58a440221e7774b47897c022ab79395c4baa1a8839a11d68",
            "0x000000000000000000000000cea2c2b93cb242f64c8c3cf36e659cb0ec7d937e",
            "0x0000000000000000000000000000000000000000000000000000000000000000"
          ],
          "data": "0x00000000000000000000000000000000000000000000000000000000000003e8",
          "blockHash": "0x6d738375fed4bed1439637bf7f7a8d565f66e190862a716a9efd1e24622fcc94",
          "blockNumber": "0x21f2ae8",
          "transactionHash": "0xdb5a3ed9f046bc7bae78bca21849b71f87e652a8afaa8cc5658cde6ba44ce420",
          "transactionIndex": "0x44",
          "logIndex": "0x103",
          "removed": false
        },
        {
          "address": "0x6b363d51016e65fEeB18b66D05f82e5d9715B0e8",
          "topics": [
            "0xddf252ad1be2c89b69c2b068fc378daa952ba7f163c4a11628f55a4df523b3ef",
            "0x0000000000000000000000000000000000000000000000000000000000000000",
            "0x000000000000000000000000409e5f34ae011e9df40e360ee37387fa8b0980cb",
            "0x0000000000000000000000000000000000000000000000000000000000002715"
          ],
          "data": "0x",
          "blockHash": "0x6d738375fed4bed1439637bf7f7a8d565f66e190862a716a9efd1e24622fcc94",
          "blockNumber": "0x21f2ae8",
          "transactionHash": "0xdb5a3ed9f046bc7bae78bca21849b71f87e652a8afaa8cc5658cde6ba44ce420",
          "transactionIndex": "0x44",
          "logIndex": "0x104",
          "removed": false
        },
        {
          "address": "0xfBC148A77961a73b001e0c9441C15c5B5b6725cC",
          "topics": [
            "0x7e667ff21894a91e58a440221e7774b47897c022ab79395c4baa1a8839a11d68",
            "0x000000000000000000000000409e5f34ae011e9df40e360ee37387fa8b0980cb",
            "0x0000000000000000000000000000000000000000000000000000000000000000"
          ],
          "data": "0x00000000000000000000000000000000000000000000000000000000000003e8",
          "blockHash": "0x6d738375fed4bed1439637bf7f7a8d565f66e190862a716a9efd1e24622fcc94",
          "blockNumber": "0x21f2ae8",
          "transactionHash": "0xdb5a3ed9f046bc7bae78bca21849b71f87e652a8afaa8cc5658cde6ba44ce420",
          "transactionIndex": "0x44",
          "logIndex": "0x105",
          "removed": false
        },
        {
          "address": "0x6b363d51016e65fEeB18b66D05f82e5d9715B0e8",
          "topics": [
            "0xddf252ad1be2c89b69c2b068fc378daa952ba7f163c4a11628f55a4df523b3ef",
            "0x0000000000000000000000000000000000000000000000000000000000000000",
            "0x0000000000000000000000007ce5039a2383ba2cdf57df1a8bd353e021c37492",
            "0x0000000000000000000000000000000000000000000000000000000000002716"
          ],
          "data": "0x",
          "blockHash": "0x6d738375fed4bed1439637bf7f7a8d565f66e190862a716a9efd1e24622fcc94",
          "blockNumber": "0x21f2ae8",
          "transactionHash": "0xdb5a3ed9f046bc7bae78bca21849b71f87e652a8afaa8cc5658cde6ba44ce420",
          "transactionIndex": "0x44",
          "logIndex": "0x106",
          "removed": false
        },
        {
          "address": "0xfBC148A77961a73b001e0c9441C15c5B5b6725cC",
          "topics": [
            "0x7e667ff21894a91e58a440221e7774b47897c022ab79395c4baa1a8839a11d68",
            "0x0000000000000000000000007ce5039a2383ba2cdf57df1a8bd353e021c37492",
            "0x0000000000000000000000000000000000000000000000000000000000000000"
          ],
          "data": "0x00000000000000000000000000000000000000000000000000000000000003e8",
          "blockHash": "0x6d738375fed4bed1439637bf7f7a8d565f66e190862a716a9efd1e24622fcc94",
          "blockNumber": "0x21f2ae8",
          "transactionHash": "0xdb5a3ed9f046bc7bae78bca21849b71f87e652a8afaa8cc5658cde6ba44ce420",
          "transactionIndex": "0x44",
          "logIndex": "0x107",
          "removed": false
        },
        {
          "address": "0x6b363d51016e65fEeB18b66D05f82e5d9715B0e8",
          "topics": [
            "0xddf252ad1be2c89b69c2b068fc378daa952ba7f163c4a11628f55a4df523b3ef",
            "0x0000000000000000000000000000000000000000000000000000000000000000",
            "0x00000000000000000000000049f2b78458b553229c51a389c811c4a73ae84c73",
            "0x0000000000000000000000000000000000000000000000000000000000002717"
          ],
          "data": "0x",
          "blockHash": "0x6d738375fed4bed1439637bf7f7a8d565f66e190862a716a9efd1e24622fcc94",
          "blockNumber": "0x21f2ae8",
          "transactionHash": "0xdb5a3ed9f046bc7bae78bca21849b71f87e652a8afaa8cc5658cde6ba44ce420",
          "transactionIndex": "0x44",
          "logIndex": "0x108",
          "removed": false
        },
        {
          "address": "0xfBC148A77961a73b001e0c9441C15c5B5b6725cC",
          "topics": [
            "0x7e667ff21894a91e58a440221e7774b47897c022ab79395c4baa1a8839a11d68",
            "0x00000000000000000000000049f2b78458b553229c51a389c811c4a73ae84c73",
            "0x0000000000000000000000000000000000000000000000000000000000000000"
          ],
          "data": "0x00000000000000000000000000000000000000000000000000000000000003e8",
          "blockHash": "0x6d738375fed4bed1439637bf7f7a8d565f66e190862a716a9efd1e24622fcc94",
          "blockNumber": "0x21f2ae8",
          "transactionHash": "0xdb5a3ed9f046bc7bae78bca21849b71f87e652a8afaa8cc5658cde6ba44ce420",
          "transactionIndex": "0x44",
          "logIndex": "0x109",
          "removed": false
        },
        {
          "address": "0x6b363d51016e65fEeB18b66D05f82e5d9715B0e8",
          "topics": [
            "0xddf252ad1be2c89b69c2b068fc378daa952ba7f163c4a11628f55a4df523b3ef",
            "0x0000000000000000000000000000000000000000000000000000000000000000",
            "0x000000000000000000000000e2c32116ab0d54c80092d5150c97555ad37e0d63",
            "0x0000000000000000000000000000000000000000000000000000000000002718"
          ],
          "data": "0x",
          "blockHash": "0x6d738375fed4bed1439637bf7f7a8d565f66e190862a716a9efd1e24622fcc94",
          "blockNumber": "0x21f2ae8",
          "transactionHash": "0xdb5a3ed9f046bc7bae78bca21849b71f87e652a8afaa8cc5658cde6ba44ce420",
          "transactionIndex": "0x44",
          "logIndex": "0x10a",
          "removed": false
        },
        {
          "address": "0xfBC148A77961a73b001e0c9441C15c5B5b6725cC",
          "topics": [
            "0x7e667ff21894a91e58a440221e7774b47897c022ab79395c4baa1a8839a11d68",
            "0x000000000000000000000000e2c32116ab0d54c80092d5150c97555ad37e0d63",
            "0x0000000000000000000000000000000000000000000000000000000000000001"
          ],
          "data": "0x00000000000000000000000000000000000000000000000000000000000003e8",
          "blockHash": "0x6d738375fed4bed1439637bf7f7a8d565f66e190862a716a9efd1e24622fcc94",
          "blockNumber": "0x21f2ae8",
          "transactionHash": "0xdb5a3ed9f046bc7bae78bca21849b71f87e652a8afaa8cc5658cde6ba44ce420",
          "transactionIndex": "0x44",
          "logIndex": "0x10b",
          "removed": false
        },
        {
          "address": "0x6b363d51016e65fEeB18b66D05f82e5d9715B0e8",
          "topics": [
            "0xddf252ad1be2c89b69c2b068fc378daa952ba7f163c4a11628f55a4df523b3ef",
            "0x0000000000000000000000000000000000000000000000000000000000000000",
            "0x000000000000000000000000983c09d36d78a8fb433a88499a95c73524954af6",
            "0x0000000000000000000000000000000000000000000000000000000000002719"
          ],
          "data": "0x",
          "blockHash": "0x6d738375fed4bed1439637bf7f7a8d565f66e190862a716a9efd1e24622fcc94",
          "blockNumber": "0x21f2ae8",
          "transactionHash": "0xdb5a3ed9f046bc7bae78bca21849b71f87e652a8afaa8cc5658cde6ba44ce420",
          "transactionIndex": "0x44",
          "logIndex": "0x10c",
          "removed": false
        },
        {
          "address": "0xfBC148A77961a73b001e0c9441C15c5B5b6725cC",
          "topics": [
            "0x7e667ff21894a91e58a440221e7774b47897c022ab79395c4baa1a8839a11d68",
            "0x000000000000000000000000983c09d36d78a8fb433a88499a95c73524954af6",
            "0x0000000000000000000000000000000000000000000000000000000000000001"
          ],
          "data": "0x00000000000000000000000000000000000000000000000000000000000003e8",
          "blockHash": "0x6d738375fed4bed1439637bf7f7a8d565f66e190862a716a9efd1e24622fcc94",
          "blockNumber": "0x21f2ae8",
          "transactionHash": "0xdb5a3ed9f046bc7bae78bca21849b71f87e652a8afaa8cc5658cde6ba44ce420",
          "transactionIndex": "0x44",
          "logIndex": "0x10d",
          "removed": false
        },
        {
          "address": "0x6b363d51016e65fEeB18b66D05f82e5d9715B0e8",
          "topics": [
            "0xddf252ad1be2c89b69c2b068fc378daa952ba7f163c4a11628f55a4df523b3ef",
            "0x0000000000000000000000000000000000000000000000000000000000000000",
            "0x000000000000000000000000158e61a181959844d6ac426a2a50eec065b3a943",
            "0x000000000000000000000000000000000000000000000000000000000000271a"
          ],
          "data": "0x",
          "blockHash": "0x6d738375fed4bed1439637bf7f7a8d565f66e190862a716a9efd1e24622fcc94",
          "blockNumber": "0x21f2ae8",
          "transactionHash": "0xdb5a3ed9f046bc7bae78bca21849b71f87e652a8afaa8cc5658cde6ba44ce420",
          "transactionIndex": "0x44",
          "logIndex": "0x10e",
          "removed": false
        },
        {
          "address": "0xfBC148A77961a73b001e0c9441C15c5B5b6725cC",
          "topics": [
            "0x7e667ff21894a91e58a440221e7774b47897c022ab79395c4baa1a8839a11d68",
            "0x000000000000000000000000158e61a181959844d6ac426a2a50eec065b3a943",
            "0x0000000000000000000000000000000000000000000000000000000000000001"
          ],
          "data": "0x00000000000000000000000000000000000000000000000000000000000003e8",
          "blockHash": "0x6d738375fed4bed1439637bf7f7a8d565f66e190862a716a9efd1e24622fcc94",
          "blockNumber": "0x21f2ae8",
          "transactionHash": "0xdb5a3ed9f046bc7bae78bca21849b71f87e652a8afaa8cc5658cde6ba44ce420",
          "transactionIndex": "0x44",
          "logIndex": "0x10f",
          "removed": false
        },
        {
          "address": "0x6b363d51016e65fEeB18b66D05f82e5d9715B0e8",
          "topics": [
            "0xddf252ad1be2c89b69c2b068fc378daa952ba7f163c4a11628f55a4df523b3ef",
            "0x0000000000000000000000000000000000000000000000000000000000000000",
            "0x000000000000000000000000d2bec77b8becdda350ddaa4be3b0d91c119b6851",
            "0x000000000000000000000000000000000000000000000000000000000000271b"
          ],
          "data": "0x",
          "blockHash": "0x6d738375fed4bed1439637bf7f7a8d565f66e190862a716a9efd1e24622fcc94",
          "blockNumber": "0x21f2ae8",
          "transactionHash": "0xdb5a3ed9f046bc7bae78bca21849b71f87e652a8afaa8cc5658cde6ba44ce420",
          "transactionIndex": "0x44",
          "logIndex": "0x110",
          "removed": false
        },
        {
          "address": "0xfBC148A77961a73b001e0c9441C15c5B5b6725cC",
          "topics": [
            "0x7e667ff21894a91e58a440221e7774b47897c022ab79395c4baa1a8839a11d68",
            "0x000000000000000000000000d2bec77b8becdda350ddaa4be3b0d91c119b6851",
            "0x0000000000000000000000000000000000000000000000000000000000000001"
          ],
          "data": "0x00000000000000000000000000000000000000000000000000000000000003e8",
          "blockHash": "0x6d738375fed4bed1439637bf7f7a8d565f66e190862a716a9efd1e24622fcc94",
          "blockNumber": "0x21f2ae8",
          "transactionHash": "0xdb5a3ed9f046bc7bae78bca21849b71f87e652a8afaa8cc5658cde6ba44ce420",
          "transactionIndex": "0x44",
          "logIndex": "0x111",
          "removed": false
        },
        {
          "address": "0x6b363d51016e65fEeB18b66D05f82e5d9715B0e8",
          "topics": [
            "0xddf252ad1be2c89b69c2b068fc378daa952ba7f163c4a11628f55a4df523b3ef",
            "0x0000000000000000000000000000000000000000000000000000000000000000",
            "0x0000000000000000000000002d254ab8625f9738200e3d1e359e6b1bf6e0e912",
            "0x000000000000000000000000000000000000000000000000000000000000271c"
          ],
          "data": "0x",
          "blockHash": "0x6d738375fed4bed1439637bf7f7a8d565f66e190862a716a9efd1e24622fcc94",
          "blockNumber": "0x21f2ae8",
          "transactionHash": "0xdb5a3ed9f046bc7bae78bca21849b71f87e652a8afaa8cc5658cde6ba44ce420",
          "transactionIndex": "0x44",
          "logIndex": "0x112",
          "removed": false
        },
        {
          "address": "0xfBC148A77961a73b001e0c9441C15c5B5b6725cC",
          "topics": [
            "0x7e667ff21894a91e58a440221e7774b47897c022ab79395c4baa1a8839a11d68",
            "0x0000000000000000000000002d254ab8625f9738200e3d1e359e6b1bf6e0e912",
            "0x0000000000000000000000000000000000000000000000000000000000000001"
          ],
          "data": "0x00000000000000000000000000000000000000000000000000000000000003e8",
          "blockHash": "0x6d738375fed4bed1439637bf7f7a8d565f66e190862a716a9efd1e24622fcc94",
          "blockNumber": "0x21f2ae8",
          "transactionHash": "0xdb5a3ed9f046bc7bae78bca21849b71f87e652a8afaa8cc5658cde6ba44ce420",
          "transactionIndex": "0x44",
          "logIndex": "0x113",
          "removed": false
        },
        {
          "address": "0x6b363d51016e65fEeB18b66D05f82e5d9715B0e8",
          "topics": [
            "0xddf252ad1be2c89b69c2b068fc378daa952ba7f163c4a11628f55a4df523b3ef",
            "0x0000000000000000000000000000000000000000000000000000000000000000",
            "0x0000000000000000000000006c7ac914d586f7089e5a68375e0df549317c3ee8",
            "0x000000000000000000000000000000000000000000000000000000000000271d"
          ],
          "data": "0x",
          "blockHash": "0x6d738375fed4bed1439637bf7f7a8d565f66e190862a716a9efd1e24622fcc94",
          "blockNumber": "0x21f2ae8",
          "transactionHash": "0xdb5a3ed9f046bc7bae78bca21849b71f87e652a8afaa8cc5658cde6ba44ce420",
          "transactionIndex": "0x44",
          "logIndex": "0x114",
          "removed": false
        },
        {
          "address": "0xfBC148A77961a73b001e0c9441C15c5B5b6725cC",
          "topics": [
            "0x7e667ff21894a91e58a440221e7774b47897c022ab79395c4baa1a8839a11d68",
            "0x0000000000000000000000006c7ac914d586f7089e5a68375e0df549317c3ee8",
            "0x0000000000000000000000000000000000000000000000000000000000000001"
          ],
          "data": "0x00000000000000000000000000000000000000000000000000000000000003e8",
          "blockHash": "0x6d738375fed4bed1439637bf7f7a8d565f66e190862a716a9efd1e24622fcc94",
          "blockNumber": "0x21f2ae8",
          "transactionHash": "0xdb5a3ed9f046bc7bae78bca21849b71f87e652a8afaa8cc5658cde6ba44ce420",
          "transactionIndex": "0x44",
          "logIndex": "0x115",
          "removed": false
        },
        {
          "address": "0x6b363d51016e65fEeB18b66D05f82e5d9715B0e8",
          "topics": [
            "0xddf252ad1be2c89b69c2b068fc378daa952ba7f163c4a11628f55a4df523b3ef",
            "0x0000000000000000000000000000000000000000000000000000000000000000",
            "0x000000000000000000000000b7fc617da6546febfc31dfc8283b8588e192b3ec",
            "0x000000000000000000000000000000000000000000000000000000000000271e"
          ],
          "data": "0x",
          "blockHash": "0x6d738375fed4bed1439637bf7f7a8d565f66e190862a716a9efd1e24622fcc94",
          "blockNumber": "0x21f2ae8",
          "transactionHash": "0xdb5a3ed9f046bc7bae78bca21849b71f87e652a8afaa8cc5658cde6ba44ce420",
          "transactionIndex": "0x44",
          "logIndex": "0x116",
          "removed": false
        },
        {
          "address": "0xfBC148A77961a73b001e0c9441C15c5B5b6725cC",
          "topics": [
            "0x7e667ff21894a91e58a440221e7774b47897c022ab79395c4baa1a8839a11d68",
            "0x000000000000000000000000b7fc617da6546febfc31dfc8283b8588e192b3ec",
            "0x0000000000000000000000000000000000000000000000000000000000000001"
          ],
          "data": "0x00000000000000000000000000000000000000000000000000000000000003e8",
          "blockHash": "0x6d738375fed4bed1439637bf7f7a8d565f66e190862a716a9efd1e24622fcc94",
          "blockNumber": "0x21f2ae8",
          "transactionHash": "0xdb5a3ed9f046bc7bae78bca21849b71f87e652a8afaa8cc5658cde6ba44ce420",
          "transactionIndex": "0x44",
          "logIndex": "0x117",
          "removed": false
        },
        {
          "address": "0x6b363d51016e65fEeB18b66D05f82e5d9715B0e8",
          "topics": [
            "0xddf252ad1be2c89b69c2b068fc378daa952ba7f163c4a11628f55a4df523b3ef",
            "0x0000000000000000000000000000000000000000000000000000000000000000",
            "0x0000000000000000000000006d711be0693b5ff41678ba3f4507c0bf1ae1ff17",
            "0x000000000000000000000000000000000000000000000000000000000000271f"
          ],
          "data": "0x",
          "blockHash": "0x6d738375fed4bed1439637bf7f7a8d565f66e190862a716a9efd1e24622fcc94",
          "blockNumber": "0x21f2ae8",
          "transactionHash": "0xdb5a3ed9f046bc7bae78bca21849b71f87e652a8afaa8cc5658cde6ba44ce420",
          "transactionIndex": "0x44",
          "logIndex": "0x118",
          "removed": false
        },
        {
          "address": "0xfBC148A77961a73b001e0c9441C15c5B5b6725cC",
          "topics": [
            "0x7e667ff21894a91e58a440221e7774b47897c022ab79395c4baa1a8839a11d68",
            "0x0000000000000000000000006d711be0693b5ff41678ba3f4507c0bf1ae1ff17",
            "0x0000000000000000000000000000000000000000000000000000000000000002"
          ],
          "data": "0x00000000000000000000000000000000000000000000000000000000000003e8",
          "blockHash": "0x6d738375fed4bed1439637bf7f7a8d565f66e190862a716a9efd1e24622fcc94",
          "blockNumber": "0x21f2ae8",
          "transactionHash": "0xdb5a3ed9f046bc7bae78bca21849b71f87e652a8afaa8cc5658cde6ba44ce420",
          "transactionIndex": "0x44",
          "logIndex": "0x119",
          "removed": false
        },
        {
          "address": "0x6b363d51016e65fEeB18b66D05f82e5d9715B0e8",
          "topics": [
            "0xddf252ad1be2c89b69c2b068fc378daa952ba7f163c4a11628f55a4df523b3ef",
            "0x0000000000000000000000000000000000000000000000000000000000000000",
            "0x000000000000000000000000d29588f9867cb0bd9d61a2c099a79b4926940351",
            "0x0000000000000000000000000000000000000000000000000000000000002720"
          ],
          "data": "0x",
          "blockHash": "0x6d738375fed4bed1439637bf7f7a8d565f66e190862a716a9efd1e24622fcc94",
          "blockNumber": "0x21f2ae8",
          "transactionHash": "0xdb5a3ed9f046bc7bae78bca21849b71f87e652a8afaa8cc5658cde6ba44ce420",
          "transactionIndex": "0x44",
          "logIndex": "0x11a",
          "removed": false
        },
        {
          "address": "0xfBC148A77961a73b001e0c9441C15c5B5b6725cC",
          "topics": [
            "0x7e667ff21894a91e58a440221e7774b47897c022ab79395c4baa1a8839a11d68",
            "0x000000000000000000000000d29588f9867cb0bd9d61a2c099a79b4926940351",
            "0x0000000000000000000000000000000000000000000000000000000000000002"
          ],
          "data": "0x00000000000000000000000000000000000000000000000000000000000003e8",
          "blockHash": "0x6d738375fed4bed1439637bf7f7a8d565f66e190862a716a9efd1e24622fcc94",
          "blockNumber": "0x21f2ae8",
          "transactionHash": "0xdb5a3ed9f046bc7bae78bca21849b71f87e652a8afaa8cc5658cde6ba44ce420",
          "transactionIndex": "0x44",
          "logIndex": "0x11b",
          "removed": false
        },
        {
          "address": "0x6b363d51016e65fEeB18b66D05f82e5d9715B0e8",
          "topics": [
            "0xddf252ad1be2c89b69c2b068fc378daa952ba7f163c4a11628f55a4df523b3ef",
            "0x0000000000000000000000000000000000000000000000000000000000000000",
            "0x0000000000000000000000005143b2f5e573be79aa5d96ae1367bfc6f095c4d9",
            "0x0000000000000000000000000000000000000000000000000000000000002721"
          ],
          "data": "0x",
          "blockHash": "0x6d738375fed4bed1439637bf7f7a8d565f66e190862a716a9efd1e24622fcc94",
          "blockNumber": "0x21f2ae8",
          "transactionHash": "0xdb5a3ed9f046bc7bae78bca21849b71f87e652a8afaa8cc5658cde6ba44ce420",
          "transactionIndex": "0x44",
          "logIndex": "0x11c",
          "removed": false
        },
        {
          "address": "0xfBC148A77961a73b001e0c9441C15c5B5b6725cC",
          "topics": [
            "0x7e667ff21894a91e58a440221e7774b47897c022ab79395c4baa1a8839a11d68",
            "0x0000000000000000000000005143b2f5e573be79aa5d96ae1367bfc6f095c4d9",
            "0x0000000000000000000000000000000000000000000000000000000000000002"
          ],
          "data": "0x00000000000000000000000000000000000000000000000000000000000003e8",
          "blockHash": "0x6d738375fed4bed1439637bf7f7a8d565f66e190862a716a9efd1e24622fcc94",
          "blockNumber": "0x21f2ae8",
          "transactionHash": "0xdb5a3ed9f046bc7bae78bca21849b71f87e652a8afaa8cc5658cde6ba44ce420",
          "transactionIndex": "0x44",
          "logIndex": "0x11d",
          "removed": false
        },
        {
          "address": "0x6b363d51016e65fEeB18b66D05f82e5d9715B0e8",
          "topics": [
            "0xddf252ad1be2c89b69c2b068fc378daa952ba7f163c4a11628f55a4df523b3ef",
            "0x0000000000000000000000000000000000000000000000000000000000000000",
            "0x000000000000000000000000de23301fed4034651bcf6612a5f89d9adc5b8a2b",
            "0x0000000000000000000000000000000000000000000000000000000000002722"
          ],
          "data": "0x",
          "blockHash": "0x6d738375fed4bed1439637bf7f7a8d565f66e190862a716a9efd1e24622fcc94",
          "blockNumber": "0x21f2ae8",
          "transactionHash": "0xdb5a3ed9f046bc7bae78bca21849b71f87e652a8afaa8cc5658cde6ba44ce420",
          "transactionIndex": "0x44",
          "logIndex": "0x11e",
          "removed": false
        },
        {
          "address": "0xfBC148A77961a73b001e0c9441C15c5B5b6725cC",
          "topics": [
            "0x7e667ff21894a91e58a440221e7774b47897c022ab79395c4baa1a8839a11d68",
            "0x000000000000000000000000de23301fed4034651bcf6612a5f89d9adc5b8a2b",
            "0x0000000000000000000000000000000000000000000000000000000000000002"
          ],
          "data": "0x00000000000000000000000000000000000000000000000000000000000003e8",
          "blockHash": "0x6d738375fed4bed1439637bf7f7a8d565f66e190862a716a9efd1e24622fcc94",
          "blockNumber": "0x21f2ae8",
          "transactionHash": "0xdb5a3ed9f046bc7bae78bca21849b71f87e652a8afaa8cc5658cde6ba44ce420",
          "transactionIndex": "0x44",
          "logIndex": "0x11f",
          "removed": false
        },
        {
          "address": "0x6b363d51016e65fEeB18b66D05f82e5d9715B0e8",
          "topics": [
            "0xddf252ad1be2c89b69c2b068fc378daa952ba7f163c4a11628f55a4df523b3ef",
            "0x0000000000000000000000000000000000000000000000000000000000000000",
            "0x000000000000000000000000205c4d9d198a2e9d74eee70151d1ba02f3c70daa",
            "0x0000000000000000000000000000000000000000000000000000000000002723"
          ],
          "data": "0x",
          "blockHash": "0x6d738375fed4bed1439637bf7f7a8d565f66e190862a716a9efd1e24622fcc94",
          "blockNumber": "0x21f2ae8",
          "transactionHash": "0xdb5a3ed9f046bc7bae78bca21849b71f87e652a8afaa8cc5658cde6ba44ce420",
          "transactionIndex": "0x44",
          "logIndex": "0x120",
          "removed": false
        },
        {
          "address": "0xfBC148A77961a73b001e0c9441C15c5B5b6725cC",
          "topics": [
            "0x7e667ff21894a91e58a440221e7774b47897c022ab79395c4baa1a8839a11d68",
            "0x000000000000000000000000205c4d9d198a2e9d74eee70151d1ba02f3c70daa",
            "0x0000000000000000000000000000000000000000000000000000000000000002"
          ],
          "data": "0x00000000000000000000000000000000000000000000000000000000000003e8",
          "blockHash": "0x6d738375fed4bed1439637bf7f7a8d565f66e190862a716a9efd1e24622fcc94",
          "blockNumber": "0x21f2ae8",
          "transactionHash": "0xdb5a3ed9f046bc7bae78bca21849b71f87e652a8afaa8cc5658cde6ba44ce420",
          "transactionIndex": "0x44",
          "logIndex": "0x121",
          "removed": false
        },
        {
          "address": "0x6b363d51016e65fEeB18b66D05f82e5d9715B0e8",
          "topics": [
            "0xddf252ad1be2c89b69c2b068fc378daa952ba7f163c4a11628f55a4df523b3ef",
            "0x0000000000000000000000000000000000000000000000000000000000000000",
            "0x00000000000000000000000002c1422931439b3e945e2f2f721c80f6c0feaf56",
            "0x0000000000000000000000000000000000000000000000000000000000002724"
          ],
          "data": "0x",
          "blockHash": "0x6d738375fed4bed1439637bf7f7a8d565f66e190862a716a9efd1e24622fcc94",
          "blockNumber": "0x21f2ae8",
          "transactionHash": "0xdb5a3ed9f046bc7bae78bca21849b71f87e652a8afaa8cc5658cde6ba44ce420",
          "transactionIndex": "0x44",
          "logIndex": "0x122",
          "removed": false
        },
        {
          "address": "0xfBC148A77961a73b001e0c9441C15c5B5b6725cC",
          "topics": [
            "0x7e667ff21894a91e58a440221e7774b47897c022ab79395c4baa1a8839a11d68",
            "0x00000000000000000000000002c1422931439b3e945e2f2f721c80f6c0feaf56",
            "0x0000000000000000000000000000000000000000000000000000000000000002"
          ],
          "data": "0x00000000000000000000000000000000000000000000000000000000000003e8",
          "blockHash": "0x6d738375fed4bed1439637bf7f7a8d565f66e190862a716a9efd1e24622fcc94",
          "blockNumber": "0x21f2ae8",
          "transactionHash": "0xdb5a3ed9f046bc7bae78bca21849b71f87e652a8afaa8cc5658cde6ba44ce420",
          "transactionIndex": "0x44",
          "logIndex": "0x123",
          "removed": false
        },
        {
          "address": "0x6b363d51016e65fEeB18b66D05f82e5d9715B0e8",
          "topics": [
            "0xddf252ad1be2c89b69c2b068fc378daa952ba7f163c4a11628f55a4df523b3ef",
            "0x0000000000000000000000000000000000000000000000000000000000000000",
            "0x000000000000000000000000205ffda46164c3e6ae60af559c82f26f9470072e",
            "0x0000000000000000000000000000000000000000000000000000000000002725"
          ],
          "data": "0x",
          "blockHash": "0x6d738375fed4bed1439637bf7f7a8d565f66e190862a716a9efd1e24622fcc94",
          "blockNumber": "0x21f2ae8",
          "transactionHash": "0xdb5a3ed9f046bc7bae78bca21849b71f87e652a8afaa8cc5658cde6ba44ce420",
          "transactionIndex": "0x44",
          "logIndex": "0x124",
          "removed": false
        },
        {
          "address": "0xfBC148A77961a73b001e0c9441C15c5B5b6725cC",
          "topics": [
            "0x7e667ff21894a91e58a440221e7774b47897c022ab79395c4baa1a8839a11d68",
            "0x000000000000000000000000205ffda46164c3e6ae60af559c82f26f9470072e",
            "0x0000000000000000000000000000000000000000000000000000000000000002"
          ],
          "data": "0x00000000000000000000000000000000000000000000000000000000000003e8",
          "blockHash": "0x6d738375fed4bed1439637bf7f7a8d565f66e190862a716a9efd1e24622fcc94",
          "blockNumber": "0x21f2ae8",
          "transactionHash": "0xdb5a3ed9f046bc7bae78bca21849b71f87e652a8afaa8cc5658cde6ba44ce420",
          "transactionIndex": "0x44",
          "logIndex": "0x125",
          "removed": false
        },
        {
          "address": "0x0000000000000000000000000000000000001010",
          "topics": [
            "0x4dfe1bbbcf077ddc3e01291eea2d5c70c2b422b415d95645b9adcfd678cb1d63",
            "0x0000000000000000000000000000000000000000000000000000000000001010",
            "0x00000000000000000000000074de159b3a9372b7e85fd00569a0929265b630ef",
            "0x0000000000000000000000009ead03f7136fc6b4bdb0780b00a1c14ae5a8b6d0"
          ],
          "data": "0x00000000000000000000000000000000000000000000000001870907e86c8a46000000000000000000000000000000000000000000000000502ae2c698b9debc00000000000000000000000000000000000000000000685c60c03ab438efa0f00000000000000000000000000000000000000000000000004ea3d9beb04d547600000000000000000000000000000000000000000000685c624743bc215c2b36",
          "blockHash": "0x6d738375fed4bed1439637bf7f7a8d565f66e190862a716a9efd1e24622fcc94",
          "blockNumber": "0x21f2ae8",
          "transactionHash": "0xdb5a3ed9f046bc7bae78bca21849b71f87e652a8afaa8cc5658cde6ba44ce420",
          "transactionIndex": "0x44",
          "logIndex": "0x126",
          "removed": false
        }
      ],
      "status": "0x1",
      "logsBloom": "0x042800000090080400000020000000000008000108480004400000001100004001018800000440000000100000800000080080201092001200000000500400000401c000002000800800000800000090022020808204001000010000022000000000004002a00401040003000000081000040000000040008a000011004042410040000000040020012100002040100040810000004000000200000000050058208000000102800000000140000004400200000080080800200008008800404000c80446080640000001000000100000800000000008044004120800000068000000400000008000000042100000008004010000808000000000000000900000",
      "type": "0x2",
      "effectiveGasPrice": "0x9845302d0"
    }
  ],
  "libraries": [],
  "pending": [],
  "path": "/Users/lain/git/eth/gang-war/broadcast/deploy.s.sol/137/run-latest.json",
  "returns": {},
  "timestamp": 1668431130,
  "commit": "7ca9d0c"
}