{
  "transactions": [
    {
      "hash": "0x9b83a8f2f149f731cf7fe91d4a5217966ed69f38f67b9f114cf6de7f8a671a5b",
      "transactionType": "CREATE",
      "contractName": "GMCChild",
      "contractAddress": "0x551d1204BB1Dd95FF8922B869B14596B609bd1Fb",
      "function": null,
      "arguments": [
        "0x8397259c983751DAf40400790063935a11afa28a",
        "0xfBC148A77961a73b001e0c9441C15c5B5b6725cC"
      ],
      "transaction": {
        "type": "0x02",
        "from": "0x74de159b3a9372b7e85fd00569a0929265b630ef",
        "gas": "0x38fdad",
        "value": "0x0",
        "data": "0x61010060405230608081905260a0523480156200001b57600080fd5b5060405162003407380380620034078339810160408190526200003e9162000073565b6001600160a01b0391821660c0521660e052620000ab565b80516001600160a01b03811681146200006e57600080fd5b919050565b600080604083850312156200008757600080fd5b620000928362000056565b9150620000a26020840162000056565b90509250929050565b60805160a05160c05160e0516132fb6200010c6000396000818161066101528181610bc0015281816121620152818161253d015281816125e001526126c101526000818161038a015261106e0152600050506000610a0101526132fb6000f3fe608060405234801561001057600080fd5b50600436106102465760003560e01c806306fdde031461024b5780630e5185061461029157806311836f32146102b15780631e373635146102d15780632972b0f0146102f45780632f745c591461030757806337cd6ffc146103285780633d9f01fb1461033d5780633dc43b7c1461036857806341d138de1461037d578063450d11f0146103855780634f1ef286146103ac57806352d1902d146103bf578063532c5cca146103c75780635484c766146103da5780635494b7b3146103ed57806355f804b31461040e578063613aac1b146104215780636352211e1461043457806364f69c291461044757806366b1b6531461045a5780636b8ff5741461046d5780636da1b4bc146104805780636f7267b7146104a05780637f1e9cb0146104c957806388837094146104d15780638da5cb5b146104e457806395d89b41146104ec5780639a7c4b711461050e5780639b75265114610521578063ab27bd1714610534578063ab7b0de814610547578063add0370a1461055d578063b055a15814610570578063b3f9ea3414610583578063bb58131f14610596578063bbae384d146105a9578063c815729d146105bc578063c87b56dd146105cf578063d8177369146105e2578063e18d38ce146105f5578063e1c7392a14610608578063e4cb42ad14610610578063ea9fee4814610623578063eec1cbb714610636578063f2fde38b14610649578063fbfa77cf1461065c578063fcce488314610683578063fe2c7fee14610696578063fe55932a146106a9575b600080fd5b61027b6040518060400160405280601181526020017047616e67737461204d696365204369747960781b81525081565b6040516102889190612983565b60405180910390f35b6102a461029f3660046129b6565b6106bc565b60405161028891906129f6565b6102c46102bf3660046129b6565b61071b565b6040516102889190612a1a565b6102e46102df366004612a57565b6107d7565b6040519015158152602001610288565b6102e4610302366004612a57565b61080b565b61031a610315366004612a57565b610854565b604051908152602001610288565b610330610881565b6040516102889190612a83565b61035061034b3660046129b6565b6108aa565b6040516001600160a01b039091168152602001610288565b61037b610376366004612b12565b6108ce565b005b61031a610983565b6103507f000000000000000000000000000000000000000000000000000000000000000081565b61037b6103ba366004612b94565b6109a6565b61031a6109f4565b61037b6103d5366004612b12565b610a52565b61037b6103e8366004612be8565b610ada565b6104006103fb3660046129b6565b610c5d565b604051610288929190612c0a565b61037b61041c366004612c1e565b610cec565b61037b61042f366004612c53565b610d33565b6103506104423660046129b6565b610dad565b61037b610455366004612b12565b610db8565b610330610468366004612c9a565b610e85565b61027b61047b3660046129b6565b610eb3565b61049361048e366004612c9a565b610f5f565b6040516102889190612cb7565b6104b36104ae3660046129b6565b610fea565b60405164ffffffffff9091168152602001610288565b61035061100e565b61037b6104df366004612c9a565b611027565b610350611059565b61027b60405180604001604052806003815260200162474d4360e81b81525081565b61037b61051c366004612ce8565b611063565b6102e461052f366004612a57565b611100565b61037b610542366004612c9a565b6111de565b6102e46105553660046129b6565b612710111590565b61037b61056b366004612c53565b6112dc565b61031a61057e366004612c9a565b611318565b61031a610591366004612c9a565b61134c565b61037b6105a4366004612c1e565b611376565b61037b6105b7366004612a57565b6113c0565b61037b6105ca3660046129b6565b6113fb565b61027b6105dd3660046129b6565b61154d565b61037b6105f0366004612c1e565b6115c1565b61027b610603366004612c9a565b611613565b61037b611644565b61037b61061e366004612b12565b61166d565b61037b610631366004612d43565b61175a565b610330610644366004612c9a565b611986565b61037b610657366004612c9a565b6119b1565b6103507f000000000000000000000000000000000000000000000000000000000000000081565b6102e46106913660046129b6565b611a42565b61037b6106a4366004612c1e565b611a68565b61037b6106b7366004612ddc565b611ab2565b6106c4612921565b6106cc611b34565b60009283526020908152604092839020835160608101855290546001600160a01b038116825260ff600160a01b8204811693830193909352600160a81b90049091161515928101929092525090565b600061072982612710111590565b1561075d57600761073c61271184612e24565b6107469190612e37565b600381111561075757610757612a04565b92915050565b600061079f61076d600185612e24565b610775611b58565b600501906000826020528160071c6000526003602060002054607f841660011b1c16905092915050565b9050806000036107b257600391506107d1565b6107bd600182612e24565b60038111156107ce576107ce612a04565b91505b50919050565b6000610804826107e5611b7c565b6001600160a01b03861660009081526020919091526040902090611ba0565b9392505050565b6000826001600160a01b031661082083610dad565b6001600160a01b031614806108045750826001600160a01b0316610843836108aa565b6001600160a01b0316149392505050565b600061080482610862611b7c565b6001600160a01b03861660009081526020919091526040902090611bb8565b60606108a561088e611b34565b600080805260029190910160205260409020611be2565b905090565b60006108b4611b34565b60009283526020525060409020546001600160a01b031690565b6108d6611c3d565b546001600160a01b031633146108ff57604051632e6c18c960e11b815260040160405180910390fd5b61271060005b8281101561097d5761272561091983612e59565b925082111561093b576040516305d23b5b60e01b815260040160405180910390fd5b61096b84848381811061095057610950612e72565b90506020020160208101906109659190612c9a565b83611c61565b8061097581612e59565b915050610905565b50505050565b60006108a5610990611b34565b6000808052600291909101602052604090205490565b6109af83611d68565b6109ef8383838080601f016020809104026020016040519081016040528093929190818152602001838380828437600092019190915250611d9c92505050565b505050565b6000306001600160a01b037f00000000000000000000000000000000000000000000000000000000000000001614610a3f576040516306c4a1c760e11b815260040160405180910390fd5b5060008051602061328f83398151915290565b60005b818110156109ef5733610a7f848484818110610a7357610a73612e72565b90506020020135610dad565b6001600160a01b031614610aa65760405163ea8e4eb560e01b815260040160405180910390fd5b610ac833848484818110610abc57610abc612e72565b90506020020135611f27565b80610ad281612e59565b915050610a55565b610ae2611c3d565b546001600160a01b03163314610b0b57604051632e6c18c960e11b815260040160405180910390fd5b8015610c5957610b3082610b1d611b58565b6005019060209182526000908152205490565b15610b4e57604051635318377960e11b815260040160405180910390fd5b610b6e8282610b5b611b58565b6005016020908152600092835290912055565b6000806000805b6080811015610c545780600787901b016001019350600181901b85901c6003169250610ba084610dad565b91508215801590610bb957506001600160a01b03821615155b15610c4c577f00000000000000000000000000000000000000000000000000000000000000006001600160a01b031663f522c8b48360018603610bfb88610fea565b6040518463ffffffff1660e01b8152600401610c1993929190612e88565b600060405180830381600087803b158015610c3357600080fd5b505af1158015610c47573d6000803e3d6000fd5b505050505b600101610b75565b505050505b5050565b6000610c67612921565b6000610c8d84610c75611b34565b60008080526002919091016020526040902090611bb8565b905080610c98611b34565b60009283526020908152604092839020835160608101855290546001600160a01b038116825260ff600160a01b8204811693830193909352600160a81b900490911615159281019290925294909350915050565b610cf4611c3d565b546001600160a01b03163314610d1d57604051632e6c18c960e11b815260040160405180910390fd5b8181610d27611b58565b916109ef919083612f40565b60005b8181101561097d5733610d54848484818110610a7357610a73612e72565b6001600160a01b031614610d7b5760405163ea8e4eb560e01b815260040160405180910390fd5b610d9d84848484818110610d9157610d91612e72565b90506020020135611c61565b610da681612e59565b9050610d36565b600061075782611fed565b610dc0611c3d565b546001600160a01b03163314610de957604051632e6c18c960e11b815260040160405180910390fd5b60005b818110156109ef576000610dfe611b34565b6000858585818110610e1257610e12612e72565b9050602002013581526020019081526020016000209050610e70848484818110610e3e57610e3e612e72565b90506020020135610e4d611b34565b83546001600160a01b031660009081526003919091016020526040902090611ff7565b50508080610e7d90612e59565b915050610dec565b6060610757610e92611b34565b6001600160a01b038416600090815260039190910160205260409020611be2565b6060610ebd611b58565b6000838152600391909101602052604090208054610eda90612ec6565b80601f0160208091040260200160405190810160405280929190818152602001828054610f0690612ec6565b8015610f535780601f10610f2857610100808354040283529160200191610f53565b820191906000526020600020905b815481529060010190602001808311610f3657829003601f168201915b50505050509050919050565b610f67612941565b6000610f728361134c565b905060005b81811015610fe3576000610f8b8583610854565b9050600184610f998361071b565b6003811115610faa57610faa612a04565b60ff1660038110610fbd57610fbd612e72565b60200201818151610fce9190612fff565b905250610fdc905081612e59565b9050610f77565b5050919050565b6000610ff882612710111590565b1561100657506103e8919050565b506064919050565b600061101861200e565b546001600160a01b0316919050565b61102f612032565b8061103861200e565b80546001600160a01b0319166001600160a01b039290921691909117905550565b6000611018611c3d565b336001600160a01b037f000000000000000000000000000000000000000000000000000000000000000016146110ac5760405163c730925d60e01b815260040160405180910390fd5b6001600160a01b03831615806110d657506110c561200e565b546001600160a01b03848116911614155b156110f457604051635ce20beb60e01b815260040160405180910390fd5b61097d84848484612063565b600061110e82612710111590565b1561118357600061111e8361071b565b9050611128611b58565b6001600160a01b0385166000908152600691909101602052604081209082600381111561115757611157612a04565b600381111561116857611168612a04565b81526020019081526020016000205460001415915050610757565b600061118e836108aa565b90506001600160a01b0381166111c0576111a783610dad565b6001600160a01b0316846001600160a01b0316146111d6565b806001600160a01b0316846001600160a01b0316145b949350505050565b6111e6611c3d565b546001600160a01b0316331461120f57604051632e6c18c960e11b815260040160405180910390fd5b600061121a82610e85565b805190915060005b8181101561097d576000611234611b34565b600001600085848151811061124b5761124b612e72565b602090810291909101810151825281019190915260400160002080549091506001600160a01b0390811690861681146112c7576112c585848151811061129357611293612e72565b60200260200101516112a3611b34565b6001600160a01b038916600090815260039190910160205260409020906120e2565b505b505080806112d490612e59565b915050611222565b6112e4611c3d565b546001600160a01b0316331461130d57604051632e6c18c960e11b815260040160405180910390fd5b6109ef8383836120f0565b6000610e10611325611b34565b6001600160a01b038416600090815260019190910160205260409020546107579190612fff565b6000610757611359611b7c565b6001600160a01b0384166000908152602091909152604090205490565b61137e611c3d565b546001600160a01b031633146113a757604051632e6c18c960e11b815260040160405180910390fd5b81816113b1611b58565b600101916109ef919083612f40565b6113c8611c3d565b546001600160a01b031633146113f157604051632e6c18c960e11b815260040160405180910390fd5b610c598282611c61565b6000611405611b34565b600083815260209190915260409020905061141f82611a42565b61143c57604051631771cc0160e11b815260040160405180910390fd5b8054600160a01b900460ff1660000361146857604051631771cc0160e11b815260040160405180910390fd5b80546001600160a01b031615611491576040516393f1b0b360e01b815260040160405180910390fd5b610e1061149c611b34565b33600090815260019190910160205260409020546114ba9042612e24565b10156114d9576040516305186e4560e01b815260040160405180910390fd5b80546001600160a01b0319163317815561150e826114f5611b34565b3360009081526003919091016020526040902090611ff7565b5042611518611b34565b3360009081526001919091016020526040902055610c5961153883610dad565b825433908590600160a01b900460ff16612121565b6060611557611b58565b805461156290612ec6565b1590506115ab57611571611b58565b61157a8361222b565b611582611b58565b60010160405160200161159793929190613085565b604051602081830303815290604052610757565b6115b3611b58565b6002018054610eda90612ec6565b6115cd8282601461226f565b6115ea5760405163430f13b360e01b815260040160405180910390fd5b81816115f4611b58565b33600090815260049190910160205260409020916109ef919083612f40565b606061161d611b58565b6001600160a01b0383166000908152600491909101602052604090208054610eda90612ec6565b303b156116635760405162dc149f60e41b815260040160405180910390fd5b61166b612478565b565b60005b818110156109ef57600083838381811061168c5761168c612e72565b90506020020135905061169f338261080b565b6116bc5760405163ea8e4eb560e01b815260040160405180910390fd5b60006116c6611b34565b600083815260209190915260409020805490915060ff600160a01b8204811691600160a81b8104909116906001600160a01b031661171757604051631771cc0160e11b815260040160405180910390fd5b61172961172385610dad565b85611f27565b8061174557825460ff60a01b1916600160a01b60ff8416021783555b505050508061175390612e59565b9050611670565b60005b8381101561197f57600085858381811061177957611779612e72565b9050602002013590503684848481811061179557611795612e72565b905060600201905060008160200160208101906117b291906130c7565b60ff16905060006117c284610dad565b90506127108411156117e75760405163ea8e4eb560e01b815260040160405180910390fd5b6001600160a01b03811633146118105760405163ea8e4eb560e01b815260040160405180910390fd5b3361181e6020850185612c9a565b6001600160a01b03160361184557604051631771cc0160e11b815260040160405180910390fd5b601e8210806118545750816064105b156118725760405163117e8efb60e01b815260040160405180910390fd5b600061189885611880611b34565b60008080526002919091016020526040902090611ff7565b9050806118b8576040516328f560bb60e21b815260040160405180910390fd5b60006118c76020860186612c9a565b6001600160a01b03161461192b57611912856118e1611b34565b60030160006118f36020890189612c9a565b6001600160a01b03168152602081019190915260400160002090611ff7565b5061192b826119246020870187612c9a565b8786612121565b87878781811061193d5761193d612e72565b90506060020161194b611b34565b60008781526020919091526040902061196482826130e4565b9050505050505050808061197790612e59565b91505061175d565b5050505050565b6060610757611993611b7c565b6001600160a01b038416600090815260209190915260409020611be2565b6119b9611c3d565b546001600160a01b031633146119e257604051632e6c18c960e11b815260040160405180910390fd5b806119eb611c3d565b80546001600160a01b0319166001600160a01b039283161790556040805133815291831660208301527fb532073b38c83145e3e5135377a08bf9aab55bc0fd7c1179cd4fb995d2a5159c910160405180910390a150565b600061075782611a50611b34565b60008080526002919091016020526040902090611ba0565b611a70611c3d565b546001600160a01b03163314611a9957604051632e6c18c960e11b815260040160405180910390fd5b8181611aa3611b58565b600201916109ef919083612f40565b611abe8282601461226f565b611adb5760405163430f13b360e01b815260040160405180910390fd5b33611ae584610dad565b6001600160a01b031614611b0c5760405163ea8e4eb560e01b815260040160405180910390fd5b8181611b16611b58565b6000868152600391909101602052604090209161097d919083612f40565b7fb20c073568d156ad06d57912c620a84698498471601ee93a68bc9a5670ef76e390565b7f9108fb9a972abcdd3f690b9b870316b079061fc15dec0c5c9a395d4fd6faab7090565b7f5706052b78143e7873dfe5a5d60ca75839688997e8d54501654544643f4caa3d90565b60009081526001919091016020526040902054151590565b6000826000018281548110611bcf57611bcf612e72565b9060005260206000200154905092915050565b606081600001805480602002602001604051908101604052809291908181526020018280548015610f5357602002820191906000526020600020905b815481526020019060010190808311611c1e5750505050509050919050565b7f87917b04fc43108fc3d291ac961b425fe1ddcf80087b2cb7e3c48f3e9233ea3390565b6000611c6b6124c0565b600083815260209190915260409020546001600160a01b03908116915083168103611cbe576000805160206132cf833981519152818484604051611cb19392919061317c565b60405180910390a1505050565b6001600160a01b03811615801590611cde57506001600160a01b03831615155b15611d0d576000805160206132cf833981519152818484604051611d049392919061317c565b60405180910390a15b82611d166124c0565b6000848152602091909152604080822080546001600160a01b0319166001600160a01b0394851617905551849286811692908516916000805160206132af8339815191529190a46109ef8184846124e4565b611d70611c3d565b546001600160a01b03163314611d9957604051632e6c18c960e11b815260040160405180910390fd5b50565b816001600160a01b03163b600003611dc7576040516309ee12d560e01b815260040160405180910390fd5b60008051602061328f83398151915260001b826001600160a01b03166352d1902d6040518163ffffffff1660e01b8152600401602060405180830381865afa158015611e17573d6000803e3d6000fd5b505050506040513d601f19601f82011682018060405250810190611e3b91906131a0565b14611e59576040516303ed501d60e01b815260040160405180910390fd5b805115611ecf576000826001600160a01b031682604051611e7a91906131b9565b600060405180830381855af49150503d8060008114611eb5576040519150601f19603f3d011682016040523d82523d6000602084013e611eba565b606091505b5050905080611ecd573d6000803e3d6000fd5b505b60008051602061328f83398151915280546001600160a01b0319166001600160a01b0384169081179091556040517fbc7cd75a20ee27fd9adebab32041f755214dbc6bffa90cc0225b39da2e5c2d3b90600090a25050565b611f4b81611f33611b34565b600080805260029190910160205260409020906120e2565b15611fc8576000611f5a611b34565b60008381526020919091526040902080549091506001600160a01b03811690600160a01b900460ff168115611fc457611fb784611f95611b34565b6001600160a01b038516600090815260039190910160205260409020906120e2565b50611fc485838684612680565b5050505b611fd0611b34565b60009182526020526040902080546001600160b01b031916905550565b60006108b46124c0565b60008282612005828261278a565b95945050505050565b7f78fb77475679055b561a920ad9c59687e010e1c25efff4790e95ce6af61a09c990565b61203a611c3d565b546001600160a01b0316331461166b57604051632e6c18c960e11b815260040160405180910390fd5b600061206f82846131d5565b90506001600160e01b031981166309a4da8160e31b146120a257604051631cd4b64760e21b815260040160405180910390fd5b60006120b2602460048587613205565b6120bb9161322f565b9050602484810135850190810190600401356120d88383836120f0565b5050505050505050565b6000828261200582826127da565b60005b8181101561097d5761211184848484818110610d9157610d91612e72565b61211a81612e59565b90506120f3565b600061212c8361071b565b9050600381600381111561214257612142612a04565b03612160576040516314df7fed60e31b815260040160405180910390fd5b7f00000000000000000000000000000000000000000000000000000000000000006001600160a01b03166328b86cfe86868460038111156121a3576121a3612a04565b866040518563ffffffff1660e01b81526004016121c3949392919061324d565b600060405180830381600087803b1580156121dd57600080fd5b505af11580156121f1573d6000803e3d6000fd5b5050505082846001600160a01b0316866001600160a01b03166000805160206132af83398151915260405160405180910390a45050505050565b606060a06040510180604052602081039150506000815280825b600183039250600a81066030018353600a9004806122455750819003601f19909101908152919050565b60008084848080601f0160208091040260200160405190810160405280939291908181526020018383808284376000920191909152505082519293505060019091109050806122be5750828151115b806122ee5750806000815181106122d7576122d7612e72565b6020910101516001600160f81b031916600160fd1b145b8061232a575080600182516123039190612e24565b8151811061231357612313612e72565b6020910101516001600160f81b031916600160fd1b145b15612339576000915050610804565b60008160008151811061234e5761234e612e72565b01602001516001600160f81b03191690506000805b835181101561246a5783818151811061237e5761237e612e72565b01602001516001600160f81b0319169150600360fd1b821180156123af5750607b60f81b6001600160f81b03198316105b806123df5750600160fe1b6001600160f81b031983161180156123df5750605b60f81b6001600160f81b03198316105b806124105750600160fd1b6001600160f81b031983161480156124105750600160fd1b6001600160f81b0319841614155b806124405750602f60f81b6001600160f81b031983161180156124405750601d60f91b6001600160f81b03198316105b1561244d5781925061245a565b6000945050505050610804565b61246381612e59565b9050612363565b506001979650505050505050565b303b156124975760405162dc149f60e41b815260040160405180910390fd5b336124a0611c3d565b80546001600160a01b0319166001600160a01b0392909216919091179055565b7fc001d528a1e2e8cbfb6d8c35f8c02fbd581080e05dcb09a52f3ab426a5ebd35690565b6124ef8383836128ab565b60006124fa8261071b565b9050600381600381111561251057612510612a04565b1461267457600061252083610fea565b90506001600160a01b038516156125cf5761253b8584611f27565b7f00000000000000000000000000000000000000000000000000000000000000006001600160a01b031663f36cb4508684600381111561257d5761257d612a04565b846040518463ffffffff1660e01b815260040161259c93929190612e88565b600060405180830381600087803b1580156125b657600080fd5b505af11580156125ca573d6000803e3d6000fd5b505050505b6001600160a01b03841615612672577f00000000000000000000000000000000000000000000000000000000000000006001600160a01b031663f522c8b48584600381111561262057612620612a04565b846040518463ffffffff1660e01b815260040161263f93929190612e88565b600060405180830381600087803b15801561265957600080fd5b505af115801561266d573d6000803e3d6000fd5b505050505b505b61197f82612710111590565b600061268b8361071b565b905060038160038111156126a1576126a1612a04565b036126bf576040516314df7fed60e31b815260040160405180910390fd5b7f00000000000000000000000000000000000000000000000000000000000000006001600160a01b03166328b86cfe858784600381111561270257612702612a04565b866040518563ffffffff1660e01b8152600401612722949392919061324d565b600060405180830381600087803b15801561273c57600080fd5b505af1158015612750573d6000803e3d6000fd5b5050505082856001600160a01b0316856001600160a01b03166000805160206132af83398151915260405160405180910390a45050505050565b600081815260018301602052604081205480156127ab576000915050610757565b505081546001808201845560008481526020808220909301849055845493815293810190915260409092205590565b60008181526001830160205260408120548082036127fc576000915050610757565b835481811461286757600085600001600183038154811061281f5761281f612e72565b906000526020600020015490508086600001600185038154811061284557612845612e72565b6000918252602080832090910192909255918252600187019052604090208290555b6000848152600186016020526040812055845485908061288957612889613278565b6001900381819060005260206000200160009055905560019250505092915050565b6001600160a01b038316156128e7576128e5816128c6611b7c565b6001600160a01b038616600090815260209190915260409020906120e2565b505b6001600160a01b038216156109ef5761097d81612902611b7c565b6001600160a01b03851660009081526020919091526040902090611ff7565b604080516060810182526000808252602082018190529181019190915290565b60405180606001604052806003906020820280368337509192915050565b60005b8381101561297a578181015183820152602001612962565b50506000910152565b60208152600082518060208401526129a281604085016020870161295f565b601f01601f19169190910160400192915050565b6000602082840312156129c857600080fd5b5035919050565b80516001600160a01b0316825260208082015160ff16908301526040908101511515910152565b6060810161075782846129cf565b634e487b7160e01b600052602160045260246000fd5b6020810160048310612a3c57634e487b7160e01b600052602160045260246000fd5b91905290565b6001600160a01b0381168114611d9957600080fd5b60008060408385031215612a6a57600080fd5b8235612a7581612a42565b946020939093013593505050565b6020808252825182820181905260009190848201906040850190845b81811015612abb57835183529284019291840191600101612a9f565b50909695505050505050565b60008083601f840112612ad957600080fd5b5081356001600160401b03811115612af057600080fd5b6020830191508360208260051b8501011115612b0b57600080fd5b9250929050565b60008060208385031215612b2557600080fd5b82356001600160401b03811115612b3b57600080fd5b612b4785828601612ac7565b90969095509350505050565b60008083601f840112612b6557600080fd5b5081356001600160401b03811115612b7c57600080fd5b602083019150836020828501011115612b0b57600080fd5b600080600060408486031215612ba957600080fd5b8335612bb481612a42565b925060208401356001600160401b03811115612bcf57600080fd5b612bdb86828701612b53565b9497909650939450505050565b60008060408385031215612bfb57600080fd5b50508035926020909101359150565b8281526080810161080460208301846129cf565b60008060208385031215612c3157600080fd5b82356001600160401b03811115612c4757600080fd5b612b4785828601612b53565b600080600060408486031215612c6857600080fd5b8335612c7381612a42565b925060208401356001600160401b03811115612c8e57600080fd5b612bdb86828701612ac7565b600060208284031215612cac57600080fd5b813561080481612a42565b60608101818360005b6003811015612cdf578151835260209283019290910190600101612cc0565b50505092915050565b60008060008060608587031215612cfe57600080fd5b843593506020850135612d1081612a42565b925060408501356001600160401b03811115612d2b57600080fd5b612d3787828801612b53565b95989497509550505050565b60008060008060408587031215612d5957600080fd5b84356001600160401b0380821115612d7057600080fd5b612d7c88838901612ac7565b90965094506020870135915080821115612d9557600080fd5b818701915087601f830112612da957600080fd5b813581811115612db857600080fd5b886020606083028501011115612dcd57600080fd5b95989497505060200194505050565b600080600060408486031215612df157600080fd5b8335925060208401356001600160401b03811115612bcf57600080fd5b634e487b7160e01b600052601160045260246000fd5b8181038181111561075757610757612e0e565b600082612e5457634e487b7160e01b600052601260045260246000fd5b500490565b600060018201612e6b57612e6b612e0e565b5060010190565b634e487b7160e01b600052603260045260246000fd5b6001600160a01b03939093168352602083019190915264ffffffffff16604082015260600190565b634e487b7160e01b600052604160045260246000fd5b600181811c90821680612eda57607f821691505b6020821081036107d157634e487b7160e01b600052602260045260246000fd5b601f8211156109ef57600081815260208120601f850160051c81016020861015612f215750805b601f850160051c820191505b81811015610c5457828155600101612f2d565b6001600160401b03831115612f5757612f57612eb0565b612f6b83612f658354612ec6565b83612efa565b6000601f841160018114612f9f5760008515612f875750838201355b600019600387901b1c1916600186901b17835561197f565b600083815260209020601f19861690835b82811015612fd05786850135825560209485019460019092019101612fb0565b5086821015612fed5760001960f88860031b161c19848701351681555b505060018560011b0183555050505050565b8082018082111561075757610757612e0e565b6000815461301f81612ec6565b60018281168015613037576001811461304c5761307b565b60ff198416875282151583028701945061307b565b8560005260208060002060005b858110156130725781548a820152908401908201613059565b50505082870194505b5050505092915050565b60006130918286613012565b84516130a181836020890161295f565b6130ad81830186613012565b979650505050505050565b60ff81168114611d9957600080fd5b6000602082840312156130d957600080fd5b8135610804816130b8565b81356130ef81612a42565b81546001600160a01b031981166001600160a01b03929092169182178355602084013561311b816130b8565b60ff60a01b60a09190911b166001600160a81b03198216831781178455604085013580151580821461314c57600080fd5b6001600160b01b03199390931660ff60a81b1994909416939093171760a89190911b60ff60a81b16179091555050565b6001600160a01b039384168152919092166020820152604081019190915260600190565b6000602082840312156131b257600080fd5b5051919050565b600082516131cb81846020870161295f565b9190910192915050565b6001600160e01b031981358181169160048510156131fd5780818660040360031b1b83161692505b505092915050565b6000808585111561321557600080fd5b8386111561322257600080fd5b5050820193919092039150565b8035602083101561075757600019602084900360031b1b1692915050565b6001600160a01b039485168152929093166020830152604082015260ff909116606082015260800190565b634e487b7160e01b600052603160045260246000fdfe360894a13ba1a3210667c828492db98dca3e2076cc3735a920a3ca505d382bbcddf252ad1be2c89b69c2b068fc378daa952ba7f163c4a11628f55a4df523b3ef1efb8458f6ad6ba3344f732b67ca617fcaa1df9155b01c7007a933707de4c346a164736f6c6343000811000a0000000000000000000000008397259c983751daf40400790063935a11afa28a000000000000000000000000fbc148a77961a73b001e0c9441c15c5b5b6725cc",
        "nonce": "0x1d9",
        "accessList": []
      },
      "additionalContracts": []
    },
    {
      "hash": "0xdc2c63a13e7b94962bf6c12037e1c89bebec0af485b72522342229a4c6dffbdd",
      "transactionType": "CALL",
      "contractName": null,
      "contractAddress": "0x6b363d51016e65fEeB18b66D05f82e5d9715B0e8",
      "function": "upgradeToAndCall(address,bytes)",
      "arguments": [
        "0x551d1204BB1Dd95FF8922B869B14596B609bd1Fb",
        "0x"
      ],
      "transaction": {
        "type": "0x02",
        "from": "0x74de159b3a9372b7e85fd00569a0929265b630ef",
        "to": "0x6b363d51016e65feeb18b66d05f82e5d9715b0e8",
        "gas": "0xd62b",
        "value": "0x0",
        "data": "0x4f1ef286000000000000000000000000551d1204bb1dd95ff8922b869b14596b609bd1fb00000000000000000000000000000000000000000000000000000000000000400000000000000000000000000000000000000000000000000000000000000000",
        "nonce": "0x1da",
        "accessList": []
      },
      "additionalContracts": []
    },
    {
      "hash": "0xd845e598b91e5a0aea00e6706b238432a63608f48cdeeeffd7ddcd9ee0211a6f",
      "transactionType": "CALL",
      "contractName": null,
      "contractAddress": "0x6b363d51016e65fEeB18b66D05f82e5d9715B0e8",
      "function": "resyncBarons(address[])",
      "arguments": [
        "[0x93085Af7a963E43C6b56C6ac2dc71cfe1Bd1923d, 0x805a3B79917055A18aBc171E14e4c7e36119D9B6, 0x4b8ee1eEf0bD930c2277a60c839834B142B373d2, 0xcea2c2b93CB242f64C8C3CF36e659cb0EC7d937e, 0x409e5f34Ae011e9Df40E360eE37387fA8b0980CB, 0x7Ce5039A2383ba2CDf57DF1a8Bd353E021c37492, 0x49f2b78458B553229c51a389C811C4A73ae84C73, 0xe2c32116AB0D54C80092D5150c97555AD37E0d63, 0x983c09D36d78A8FB433a88499A95c73524954Af6, 0x158e61A181959844D6Ac426a2A50eec065B3a943, 0xd2bEC77b8BEcdDA350DDaA4Be3b0D91C119b6851, 0x2d254aB8625f9738200E3D1e359e6b1Bf6e0E912, 0x6C7AC914D586F7089e5a68375E0df549317c3eE8, 0xB7fc617Da6546febfC31dfc8283B8588E192B3ec, 0x6d711bE0693B5ff41678bA3f4507c0BF1Ae1ff17, 0xD29588f9867CB0bD9D61A2c099A79B4926940351, 0x5143B2F5e573Be79aA5D96Ae1367bFC6F095C4d9, 0xDe23301fEd4034651bCF6612A5f89D9ADC5b8a2b, 0x205C4d9d198a2e9D74eee70151d1Ba02f3C70Daa, 0x02C1422931439B3e945e2F2F721c80F6c0feaF56, 0x205FfDa46164C3e6ae60AF559c82F26f9470072E]"
      ],
      "transaction": {
        "type": "0x02",
        "from": "0x74de159b3a9372b7e85fd00569a0929265b630ef",
        "to": "0x6b363d51016e65feeb18b66d05f82e5d9715b0e8",
        "gas": "0x2e4b9",
        "value": "0x0",
        "data": "0x3dc43b7c0000000000000000000000000000000000000000000000000000000000000020000000000000000000000000000000000000000000000000000000000000001500000000000000000000000093085af7a963e43c6b56c6ac2dc71cfe1bd1923d000000000000000000000000805a3b79917055a18abc171e14e4c7e36119d9b60000000000000000000000004b8ee1eef0bd930c2277a60c839834b142b373d2000000000000000000000000cea2c2b93cb242f64c8c3cf36e659cb0ec7d937e000000000000000000000000409e5f34ae011e9df40e360ee37387fa8b0980cb0000000000000000000000007ce5039a2383ba2cdf57df1a8bd353e021c3749200000000000000000000000049f2b78458b553229c51a389c811c4a73ae84c73000000000000000000000000e2c32116ab0d54c80092d5150c97555ad37e0d63000000000000000000000000983c09d36d78a8fb433a88499a95c73524954af6000000000000000000000000158e61a181959844d6ac426a2a50eec065b3a943000000000000000000000000d2bec77b8becdda350ddaa4be3b0d91c119b68510000000000000000000000002d254ab8625f9738200e3d1e359e6b1bf6e0e9120000000000000000000000006c7ac914d586f7089e5a68375e0df549317c3ee8000000000000000000000000b7fc617da6546febfc31dfc8283b8588e192b3ec0000000000000000000000006d711be0693b5ff41678ba3f4507c0bf1ae1ff17000000000000000000000000d29588f9867cb0bd9d61a2c099a79b49269403510000000000000000000000005143b2f5e573be79aa5d96ae1367bfc6f095c4d9000000000000000000000000de23301fed4034651bcf6612a5f89d9adc5b8a2b000000000000000000000000205c4d9d198a2e9d74eee70151d1ba02f3c70daa00000000000000000000000002c1422931439b3e945e2f2f721c80f6c0feaf56000000000000000000000000205ffda46164c3e6ae60af559c82f26f9470072e",
        "nonce": "0x1db",
        "accessList": []
      },
      "additionalContracts": []
    }
  ],
  "receipts": [
    {
      "transactionHash": "0x9b83a8f2f149f731cf7fe91d4a5217966ed69f38f67b9f114cf6de7f8a671a5b",
      "transactionIndex": "0x1d",
      "blockHash": "0x9ae032fdb16a02b727e4a26efe33fcd2e2ff14d94609cd295d9018759988231c",
      "blockNumber": "0x220a885",
      "from": "0x74De159B3a9372b7e85Fd00569a0929265b630eF",
      "to": null,
      "cumulativeGasUsed": "0x713e10",
      "gasUsed": "0x2bd6d4",
      "contractAddress": "0x551d1204BB1Dd95FF8922B869B14596B609bd1Fb",
      "logs": [
        {
          "address": "0x0000000000000000000000000000000000001010",
          "topics": [
            "0x4dfe1bbbcf077ddc3e01291eea2d5c70c2b422b415d95645b9adcfd678cb1d63",
            "0x0000000000000000000000000000000000000000000000000000000000001010",
            "0x00000000000000000000000074de159b3a9372b7e85fd00569a0929265b630ef",
            "0x0000000000000000000000007c7379531b2aee82e4ca06d4175d13b9cbeafd49"
          ],
          "data": "0x000000000000000000000000000000000000000000000000013ff4acad593e440000000000000000000000000000000000000000000000004e7a00261a6df49c00000000000000000000000000000000000000000001a945355ee61adedc052b0000000000000000000000000000000000000000000000004d3a0b796d14b65800000000000000000000000000000000000000000001a945369edac78c35436f",
          "blockHash": "0x9ae032fdb16a02b727e4a26efe33fcd2e2ff14d94609cd295d9018759988231c",
          "blockNumber": "0x220a885",
          "transactionHash": "0x9b83a8f2f149f731cf7fe91d4a5217966ed69f38f67b9f114cf6de7f8a671a5b",
          "transactionIndex": "0x1d",
          "logIndex": "0x6f",
          "removed": false
        }
      ],
      "status": "0x1",
      "logsBloom": "0x00000000000000000000000000000000000000000000000000000000000000400000000000000000000000000000000000008000000000000000000000000000000000000000000000000000000000800000000080400000000100000000000000000040000000000000000000000000000000000000000080000000000000000000000000000000000000000000000040000000000000000000000000000000200000000000000000000000000000000000000000000000000000000000004000000000000000000001000000000000000000000000000000100000000000000000000000000000000000000000000000000000000000000000000000100000",
      "type": "0x2",
      "effectiveGasPrice": "0x74c63ddcf"
    },
    {
      "transactionHash": "0xdc2c63a13e7b94962bf6c12037e1c89bebec0af485b72522342229a4c6dffbdd",
      "transactionIndex": "0x1f",
      "blockHash": "0xe941de0c1c2a48c98e7787a5b9f01a971fe6dc84d8daa7b9cac3dbdc9cecd34d",
      "blockNumber": "0x220a888",
      "from": "0x74De159B3a9372b7e85Fd00569a0929265b630eF",
      "to": "0x6b363d51016e65fEeB18b66D05f82e5d9715B0e8",
      "cumulativeGasUsed": "0x5393cc",
      "gasUsed": "0x9271",
      "contractAddress": null,
      "logs": [
        {
          "address": "0x6b363d51016e65fEeB18b66D05f82e5d9715B0e8",
          "topics": [
            "0xbc7cd75a20ee27fd9adebab32041f755214dbc6bffa90cc0225b39da2e5c2d3b",
            "0x000000000000000000000000551d1204bb1dd95ff8922b869b14596b609bd1fb"
          ],
          "data": "0x",
          "blockHash": "0xe941de0c1c2a48c98e7787a5b9f01a971fe6dc84d8daa7b9cac3dbdc9cecd34d",
          "blockNumber": "0x220a888",
          "transactionHash": "0xdc2c63a13e7b94962bf6c12037e1c89bebec0af485b72522342229a4c6dffbdd",
          "transactionIndex": "0x1f",
          "logIndex": "0x7b",
          "removed": false
        },
        {
          "address": "0x0000000000000000000000000000000000001010",
          "topics": [
            "0x4dfe1bbbcf077ddc3e01291eea2d5c70c2b422b415d95645b9adcfd678cb1d63",
            "0x0000000000000000000000000000000000000000000000000000000000001010",
            "0x00000000000000000000000074de159b3a9372b7e85fd00569a0929265b630ef",
            "0x0000000000000000000000007c7379531b2aee82e4ca06d4175d13b9cbeafd49"
          ],
          "data": "0x00000000000000000000000000000000000000000000000000042cc9ab813d9d0000000000000000000000000000000000000000000000004d3a0b791a8a3b3000000000000000000000000000000000000000000001a945482d276d855f307a0000000000000000000000000000000000000000000000004d35deaf6f08fd9300000000000000000000000000000000000000000001a9454831543730e06e17",
          "blockHash": "0xe941de0c1c2a48c98e7787a5b9f01a971fe6dc84d8daa7b9cac3dbdc9cecd34d",
          "blockNumber": "0x220a888",
          "transactionHash": "0xdc2c63a13e7b94962bf6c12037e1c89bebec0af485b72522342229a4c6dffbdd",
          "transactionIndex": "0x1f",
          "logIndex": "0x7c",
          "removed": false
        }
      ],
      "status": "0x1",
      "logsBloom": "0x00000000000000000000000000000000400000000000000000000000000000400000000000000000000000000080000000008000000000000000000000000000000000000000000040000000000002800000200080400000000100000000000000000040000000000000000000000000000000000000000080000000000000000000000000000000000000000000000040000000000000000000000000000000200400000000000000000000000000000000000000000000000000000000404000000020000000000001000000000000000000000000000000100000000000000000000000000000000000000000000000000000000100000000000000100000",
      "type": "0x2",
      "effectiveGasPrice": "0x74c63ddd1"
    },
    {
      "transactionHash": "0xd845e598b91e5a0aea00e6706b238432a63608f48cdeeeffd7ddcd9ee0211a6f",
      "transactionIndex": "0x19",
      "blockHash": "0x687ad958c835ef2b79ba7e847c334220abe242b530b418847b599410b2fe2b24",
      "blockNumber": "0x220a88c",
      "from": "0x74De159B3a9372b7e85Fd00569a0929265b630eF",
      "to": "0x6b363d51016e65fEeB18b66D05f82e5d9715B0e8",
      "cumulativeGasUsed": "0x4434d5",
      "gasUsed": "0x1fa7b",
      "contractAddress": null,
      "logs": [
        {
          "address": "0x6b363d51016e65fEeB18b66D05f82e5d9715B0e8",
          "topics": [
            "0x1efb8458f6ad6ba3344f732b67ca617fcaa1df9155b01c7007a933707de4c346"
          ],
          "data": "0x00000000000000000000000093085af7a963e43c6b56c6ac2dc71cfe1bd1923d00000000000000000000000093085af7a963e43c6b56c6ac2dc71cfe1bd1923d0000000000000000000000000000000000000000000000000000000000002711",
          "blockHash": "0x687ad958c835ef2b79ba7e847c334220abe242b530b418847b599410b2fe2b24",
          "blockNumber": "0x220a88c",
          "transactionHash": "0xd845e598b91e5a0aea00e6706b238432a63608f48cdeeeffd7ddcd9ee0211a6f",
          "transactionIndex": "0x19",
          "logIndex": "0x62",
          "removed": false
        },
        {
          "address": "0x6b363d51016e65fEeB18b66D05f82e5d9715B0e8",
          "topics": [
            "0x1efb8458f6ad6ba3344f732b67ca617fcaa1df9155b01c7007a933707de4c346"
          ],
          "data": "0x000000000000000000000000805a3b79917055a18abc171e14e4c7e36119d9b6000000000000000000000000805a3b79917055a18abc171e14e4c7e36119d9b60000000000000000000000000000000000000000000000000000000000002712",
          "blockHash": "0x687ad958c835ef2b79ba7e847c334220abe242b530b418847b599410b2fe2b24",
          "blockNumber": "0x220a88c",
          "transactionHash": "0xd845e598b91e5a0aea00e6706b238432a63608f48cdeeeffd7ddcd9ee0211a6f",
          "transactionIndex": "0x19",
          "logIndex": "0x63",
          "removed": false
        },
        {
          "address": "0x6b363d51016e65fEeB18b66D05f82e5d9715B0e8",
          "topics": [
            "0x1efb8458f6ad6ba3344f732b67ca617fcaa1df9155b01c7007a933707de4c346"
          ],
          "data": "0x0000000000000000000000004b8ee1eef0bd930c2277a60c839834b142b373d20000000000000000000000004b8ee1eef0bd930c2277a60c839834b142b373d20000000000000000000000000000000000000000000000000000000000002713",
          "blockHash": "0x687ad958c835ef2b79ba7e847c334220abe242b530b418847b599410b2fe2b24",
          "blockNumber": "0x220a88c",
          "transactionHash": "0xd845e598b91e5a0aea00e6706b238432a63608f48cdeeeffd7ddcd9ee0211a6f",
          "transactionIndex": "0x19",
          "logIndex": "0x64",
          "removed": false
        },
        {
          "address": "0x6b363d51016e65fEeB18b66D05f82e5d9715B0e8",
          "topics": [
            "0x1efb8458f6ad6ba3344f732b67ca617fcaa1df9155b01c7007a933707de4c346"
          ],
          "data": "0x000000000000000000000000cea2c2b93cb242f64c8c3cf36e659cb0ec7d937e000000000000000000000000cea2c2b93cb242f64c8c3cf36e659cb0ec7d937e0000000000000000000000000000000000000000000000000000000000002714",
          "blockHash": "0x687ad958c835ef2b79ba7e847c334220abe242b530b418847b599410b2fe2b24",
          "blockNumber": "0x220a88c",
          "transactionHash": "0xd845e598b91e5a0aea00e6706b238432a63608f48cdeeeffd7ddcd9ee0211a6f",
          "transactionIndex": "0x19",
          "logIndex": "0x65",
          "removed": false
        },
        {
          "address": "0x6b363d51016e65fEeB18b66D05f82e5d9715B0e8",
          "topics": [
            "0x1efb8458f6ad6ba3344f732b67ca617fcaa1df9155b01c7007a933707de4c346"
          ],
          "data": "0x000000000000000000000000409e5f34ae011e9df40e360ee37387fa8b0980cb000000000000000000000000409e5f34ae011e9df40e360ee37387fa8b0980cb0000000000000000000000000000000000000000000000000000000000002715",
          "blockHash": "0x687ad958c835ef2b79ba7e847c334220abe242b530b418847b599410b2fe2b24",
          "blockNumber": "0x220a88c",
          "transactionHash": "0xd845e598b91e5a0aea00e6706b238432a63608f48cdeeeffd7ddcd9ee0211a6f",
          "transactionIndex": "0x19",
          "logIndex": "0x66",
          "removed": false
        },
        {
          "address": "0x6b363d51016e65fEeB18b66D05f82e5d9715B0e8",
          "topics": [
            "0x1efb8458f6ad6ba3344f732b67ca617fcaa1df9155b01c7007a933707de4c346"
          ],
          "data": "0x0000000000000000000000007ce5039a2383ba2cdf57df1a8bd353e021c374920000000000000000000000007ce5039a2383ba2cdf57df1a8bd353e021c374920000000000000000000000000000000000000000000000000000000000002716",
          "blockHash": "0x687ad958c835ef2b79ba7e847c334220abe242b530b418847b599410b2fe2b24",
          "blockNumber": "0x220a88c",
          "transactionHash": "0xd845e598b91e5a0aea00e6706b238432a63608f48cdeeeffd7ddcd9ee0211a6f",
          "transactionIndex": "0x19",
          "logIndex": "0x67",
          "removed": false
        },
        {
          "address": "0x6b363d51016e65fEeB18b66D05f82e5d9715B0e8",
          "topics": [
            "0x1efb8458f6ad6ba3344f732b67ca617fcaa1df9155b01c7007a933707de4c346"
          ],
          "data": "0x00000000000000000000000049f2b78458b553229c51a389c811c4a73ae84c7300000000000000000000000049f2b78458b553229c51a389c811c4a73ae84c730000000000000000000000000000000000000000000000000000000000002717",
          "blockHash": "0x687ad958c835ef2b79ba7e847c334220abe242b530b418847b599410b2fe2b24",
          "blockNumber": "0x220a88c",
          "transactionHash": "0xd845e598b91e5a0aea00e6706b238432a63608f48cdeeeffd7ddcd9ee0211a6f",
          "transactionIndex": "0x19",
          "logIndex": "0x68",
          "removed": false
        },
        {
          "address": "0x6b363d51016e65fEeB18b66D05f82e5d9715B0e8",
          "topics": [
            "0x1efb8458f6ad6ba3344f732b67ca617fcaa1df9155b01c7007a933707de4c346"
          ],
          "data": "0x000000000000000000000000e2c32116ab0d54c80092d5150c97555ad37e0d63000000000000000000000000e2c32116ab0d54c80092d5150c97555ad37e0d630000000000000000000000000000000000000000000000000000000000002718",
          "blockHash": "0x687ad958c835ef2b79ba7e847c334220abe242b530b418847b599410b2fe2b24",
          "blockNumber": "0x220a88c",
          "transactionHash": "0xd845e598b91e5a0aea00e6706b238432a63608f48cdeeeffd7ddcd9ee0211a6f",
          "transactionIndex": "0x19",
          "logIndex": "0x69",
          "removed": false
        },
        {
          "address": "0x6b363d51016e65fEeB18b66D05f82e5d9715B0e8",
          "topics": [
            "0x1efb8458f6ad6ba3344f732b67ca617fcaa1df9155b01c7007a933707de4c346"
          ],
          "data": "0x000000000000000000000000983c09d36d78a8fb433a88499a95c73524954af6000000000000000000000000983c09d36d78a8fb433a88499a95c73524954af60000000000000000000000000000000000000000000000000000000000002719",
          "blockHash": "0x687ad958c835ef2b79ba7e847c334220abe242b530b418847b599410b2fe2b24",
          "blockNumber": "0x220a88c",
          "transactionHash": "0xd845e598b91e5a0aea00e6706b238432a63608f48cdeeeffd7ddcd9ee0211a6f",
          "transactionIndex": "0x19",
          "logIndex": "0x6a",
          "removed": false
        },
        {
          "address": "0x6b363d51016e65fEeB18b66D05f82e5d9715B0e8",
          "topics": [
            "0x1efb8458f6ad6ba3344f732b67ca617fcaa1df9155b01c7007a933707de4c346"
          ],
          "data": "0x000000000000000000000000158e61a181959844d6ac426a2a50eec065b3a943000000000000000000000000158e61a181959844d6ac426a2a50eec065b3a943000000000000000000000000000000000000000000000000000000000000271a",
          "blockHash": "0x687ad958c835ef2b79ba7e847c334220abe242b530b418847b599410b2fe2b24",
          "blockNumber": "0x220a88c",
          "transactionHash": "0xd845e598b91e5a0aea00e6706b238432a63608f48cdeeeffd7ddcd9ee0211a6f",
          "transactionIndex": "0x19",
          "logIndex": "0x6b",
          "removed": false
        },
        {
          "address": "0x6b363d51016e65fEeB18b66D05f82e5d9715B0e8",
          "topics": [
            "0x1efb8458f6ad6ba3344f732b67ca617fcaa1df9155b01c7007a933707de4c346"
          ],
          "data": "0x000000000000000000000000d2bec77b8becdda350ddaa4be3b0d91c119b6851000000000000000000000000d2bec77b8becdda350ddaa4be3b0d91c119b6851000000000000000000000000000000000000000000000000000000000000271b",
          "blockHash": "0x687ad958c835ef2b79ba7e847c334220abe242b530b418847b599410b2fe2b24",
          "blockNumber": "0x220a88c",
          "transactionHash": "0xd845e598b91e5a0aea00e6706b238432a63608f48cdeeeffd7ddcd9ee0211a6f",
          "transactionIndex": "0x19",
          "logIndex": "0x6c",
          "removed": false
        },
        {
          "address": "0x6b363d51016e65fEeB18b66D05f82e5d9715B0e8",
          "topics": [
            "0x1efb8458f6ad6ba3344f732b67ca617fcaa1df9155b01c7007a933707de4c346"
          ],
          "data": "0x0000000000000000000000002d254ab8625f9738200e3d1e359e6b1bf6e0e9120000000000000000000000002d254ab8625f9738200e3d1e359e6b1bf6e0e912000000000000000000000000000000000000000000000000000000000000271c",
          "blockHash": "0x687ad958c835ef2b79ba7e847c334220abe242b530b418847b599410b2fe2b24",
          "blockNumber": "0x220a88c",
          "transactionHash": "0xd845e598b91e5a0aea00e6706b238432a63608f48cdeeeffd7ddcd9ee0211a6f",
          "transactionIndex": "0x19",
          "logIndex": "0x6d",
          "removed": false
        },
        {
          "address": "0x6b363d51016e65fEeB18b66D05f82e5d9715B0e8",
          "topics": [
            "0x1efb8458f6ad6ba3344f732b67ca617fcaa1df9155b01c7007a933707de4c346"
          ],
          "data": "0x0000000000000000000000006c7ac914d586f7089e5a68375e0df549317c3ee80000000000000000000000006c7ac914d586f7089e5a68375e0df549317c3ee8000000000000000000000000000000000000000000000000000000000000271d",
          "blockHash": "0x687ad958c835ef2b79ba7e847c334220abe242b530b418847b599410b2fe2b24",
          "blockNumber": "0x220a88c",
          "transactionHash": "0xd845e598b91e5a0aea00e6706b238432a63608f48cdeeeffd7ddcd9ee0211a6f",
          "transactionIndex": "0x19",
          "logIndex": "0x6e",
          "removed": false
        },
        {
          "address": "0x6b363d51016e65fEeB18b66D05f82e5d9715B0e8",
          "topics": [
            "0x1efb8458f6ad6ba3344f732b67ca617fcaa1df9155b01c7007a933707de4c346"
          ],
          "data": "0x000000000000000000000000b7fc617da6546febfc31dfc8283b8588e192b3ec000000000000000000000000b7fc617da6546febfc31dfc8283b8588e192b3ec000000000000000000000000000000000000000000000000000000000000271e",
          "blockHash": "0x687ad958c835ef2b79ba7e847c334220abe242b530b418847b599410b2fe2b24",
          "blockNumber": "0x220a88c",
          "transactionHash": "0xd845e598b91e5a0aea00e6706b238432a63608f48cdeeeffd7ddcd9ee0211a6f",
          "transactionIndex": "0x19",
          "logIndex": "0x6f",
          "removed": false
        },
        {
          "address": "0x6b363d51016e65fEeB18b66D05f82e5d9715B0e8",
          "topics": [
            "0x1efb8458f6ad6ba3344f732b67ca617fcaa1df9155b01c7007a933707de4c346"
          ],
          "data": "0x0000000000000000000000006d711be0693b5ff41678ba3f4507c0bf1ae1ff170000000000000000000000006d711be0693b5ff41678ba3f4507c0bf1ae1ff17000000000000000000000000000000000000000000000000000000000000271f",
          "blockHash": "0x687ad958c835ef2b79ba7e847c334220abe242b530b418847b599410b2fe2b24",
          "blockNumber": "0x220a88c",
          "transactionHash": "0xd845e598b91e5a0aea00e6706b238432a63608f48cdeeeffd7ddcd9ee0211a6f",
          "transactionIndex": "0x19",
          "logIndex": "0x70",
          "removed": false
        },
        {
          "address": "0x6b363d51016e65fEeB18b66D05f82e5d9715B0e8",
          "topics": [
            "0x1efb8458f6ad6ba3344f732b67ca617fcaa1df9155b01c7007a933707de4c346"
          ],
          "data": "0x000000000000000000000000d29588f9867cb0bd9d61a2c099a79b4926940351000000000000000000000000d29588f9867cb0bd9d61a2c099a79b49269403510000000000000000000000000000000000000000000000000000000000002720",
          "blockHash": "0x687ad958c835ef2b79ba7e847c334220abe242b530b418847b599410b2fe2b24",
          "blockNumber": "0x220a88c",
          "transactionHash": "0xd845e598b91e5a0aea00e6706b238432a63608f48cdeeeffd7ddcd9ee0211a6f",
          "transactionIndex": "0x19",
          "logIndex": "0x71",
          "removed": false
        },
        {
          "address": "0x6b363d51016e65fEeB18b66D05f82e5d9715B0e8",
          "topics": [
            "0x1efb8458f6ad6ba3344f732b67ca617fcaa1df9155b01c7007a933707de4c346"
          ],
          "data": "0x0000000000000000000000005143b2f5e573be79aa5d96ae1367bfc6f095c4d90000000000000000000000005143b2f5e573be79aa5d96ae1367bfc6f095c4d90000000000000000000000000000000000000000000000000000000000002721",
          "blockHash": "0x687ad958c835ef2b79ba7e847c334220abe242b530b418847b599410b2fe2b24",
          "blockNumber": "0x220a88c",
          "transactionHash": "0xd845e598b91e5a0aea00e6706b238432a63608f48cdeeeffd7ddcd9ee0211a6f",
          "transactionIndex": "0x19",
          "logIndex": "0x72",
          "removed": false
        },
        {
          "address": "0x6b363d51016e65fEeB18b66D05f82e5d9715B0e8",
          "topics": [
            "0x1efb8458f6ad6ba3344f732b67ca617fcaa1df9155b01c7007a933707de4c346"
          ],
          "data": "0x000000000000000000000000de23301fed4034651bcf6612a5f89d9adc5b8a2b000000000000000000000000de23301fed4034651bcf6612a5f89d9adc5b8a2b0000000000000000000000000000000000000000000000000000000000002722",
          "blockHash": "0x687ad958c835ef2b79ba7e847c334220abe242b530b418847b599410b2fe2b24",
          "blockNumber": "0x220a88c",
          "transactionHash": "0xd845e598b91e5a0aea00e6706b238432a63608f48cdeeeffd7ddcd9ee0211a6f",
          "transactionIndex": "0x19",
          "logIndex": "0x73",
          "removed": false
        },
        {
          "address": "0x6b363d51016e65fEeB18b66D05f82e5d9715B0e8",
          "topics": [
            "0x1efb8458f6ad6ba3344f732b67ca617fcaa1df9155b01c7007a933707de4c346"
          ],
          "data": "0x000000000000000000000000205c4d9d198a2e9d74eee70151d1ba02f3c70daa000000000000000000000000205c4d9d198a2e9d74eee70151d1ba02f3c70daa0000000000000000000000000000000000000000000000000000000000002723",
          "blockHash": "0x687ad958c835ef2b79ba7e847c334220abe242b530b418847b599410b2fe2b24",
          "blockNumber": "0x220a88c",
          "transactionHash": "0xd845e598b91e5a0aea00e6706b238432a63608f48cdeeeffd7ddcd9ee0211a6f",
          "transactionIndex": "0x19",
          "logIndex": "0x74",
          "removed": false
        },
        {
          "address": "0x6b363d51016e65fEeB18b66D05f82e5d9715B0e8",
          "topics": [
            "0x1efb8458f6ad6ba3344f732b67ca617fcaa1df9155b01c7007a933707de4c346"
          ],
          "data": "0x00000000000000000000000002c1422931439b3e945e2f2f721c80f6c0feaf5600000000000000000000000002c1422931439b3e945e2f2f721c80f6c0feaf560000000000000000000000000000000000000000000000000000000000002724",
          "blockHash": "0x687ad958c835ef2b79ba7e847c334220abe242b530b418847b599410b2fe2b24",
          "blockNumber": "0x220a88c",
          "transactionHash": "0xd845e598b91e5a0aea00e6706b238432a63608f48cdeeeffd7ddcd9ee0211a6f",
          "transactionIndex": "0x19",
          "logIndex": "0x75",
          "removed": false
        },
        {
          "address": "0x6b363d51016e65fEeB18b66D05f82e5d9715B0e8",
          "topics": [
            "0x1efb8458f6ad6ba3344f732b67ca617fcaa1df9155b01c7007a933707de4c346"
          ],
          "data": "0x000000000000000000000000205ffda46164c3e6ae60af559c82f26f9470072e000000000000000000000000205ffda46164c3e6ae60af559c82f26f9470072e0000000000000000000000000000000000000000000000000000000000002725",
          "blockHash": "0x687ad958c835ef2b79ba7e847c334220abe242b530b418847b599410b2fe2b24",
          "blockNumber": "0x220a88c",
          "transactionHash": "0xd845e598b91e5a0aea00e6706b238432a63608f48cdeeeffd7ddcd9ee0211a6f",
          "transactionIndex": "0x19",
          "logIndex": "0x76",
          "removed": false
        },
        {
          "address": "0x0000000000000000000000000000000000001010",
          "topics": [
            "0x4dfe1bbbcf077ddc3e01291eea2d5c70c2b422b415d95645b9adcfd678cb1d63",
            "0x0000000000000000000000000000000000000000000000000000000000001010",
            "0x00000000000000000000000074de159b3a9372b7e85fd00569a0929265b630ef",
            "0x0000000000000000000000007c7379531b2aee82e4ca06d4175d13b9cbeafd49"
          ],
          "data": "0x000000000000000000000000000000000000000000000000000e707f14ad1cdf0000000000000000000000000000000000000000000000004d35deaf6df41fef00000000000000000000000000000000000000000001a9455ca7990db5eb08620000000000000000000000000000000000000000000000004d276e305947031000000000000000000000000000000000000000000001a9455cb6098cca982541",
          "blockHash": "0x687ad958c835ef2b79ba7e847c334220abe242b530b418847b599410b2fe2b24",
          "blockNumber": "0x220a88c",
          "transactionHash": "0xd845e598b91e5a0aea00e6706b238432a63608f48cdeeeffd7ddcd9ee0211a6f",
          "transactionIndex": "0x19",
          "logIndex": "0x77",
          "removed": false
        }
      ],
      "status": "0x1",
      "logsBloom": "0x00000000000000000000000000000000000000000000000000000000000000400000000000000000000000000080000008008000000000000000000080000000000000000000000000000000000000800000200080400000000100000000000000000040000000000000000000000000000000000000000080000000000000000000000000000000000000000000000040000000000000000000000000000000200000000000000000000000000000000000000000000000000000000000404000000000000000000001000000000000000000000000000000100000000000000000000000000000000000004000000000000000000000000000000000100000",
      "type": "0x2",
      "effectiveGasPrice": "0x74c63dda7"
    }
  ],
  "libraries": [],
  "pending": [],
  "path": "/Users/lain/git/eth/gang-war/broadcast/deploy.s.sol/137/run-latest.json",
  "returns": {},
  "timestamp": 1668635794,
  "commit": "7ca9d0c"
}